{
  "_format": "hh-sol-artifact-1",
  "contractName": "Dertberds",
  "sourceName": "contracts/dertberds.sol",
  "abi": [
    {
      "inputs": [
        {
          "internalType": "address",
          "name": "tempBirdsContractAddress_",
          "type": "address"
        }
      ],
      "stateMutability": "nonpayable",
      "type": "constructor"
    },
    {
      "anonymous": false,
      "inputs": [
        {
          "indexed": true,
          "internalType": "address",
          "name": "owner",
          "type": "address"
        },
        {
          "indexed": true,
          "internalType": "address",
          "name": "approved",
          "type": "address"
        },
        {
          "indexed": true,
          "internalType": "uint256",
          "name": "tokenId",
          "type": "uint256"
        }
      ],
      "name": "Approval",
      "type": "event"
    },
    {
      "anonymous": false,
      "inputs": [
        {
          "indexed": true,
          "internalType": "address",
          "name": "owner",
          "type": "address"
        },
        {
          "indexed": true,
          "internalType": "address",
          "name": "operator",
          "type": "address"
        },
        {
          "indexed": false,
          "internalType": "bool",
          "name": "approved",
          "type": "bool"
        }
      ],
      "name": "ApprovalForAll",
      "type": "event"
    },
    {
      "anonymous": false,
      "inputs": [],
      "name": "Blah",
      "type": "event"
    },
    {
      "anonymous": false,
      "inputs": [
        {
          "indexed": true,
          "internalType": "address",
          "name": "previousOwner",
          "type": "address"
        },
        {
          "indexed": true,
          "internalType": "address",
          "name": "newOwner",
          "type": "address"
        }
      ],
      "name": "OwnershipTransferred",
      "type": "event"
    },
    {
      "anonymous": false,
      "inputs": [
        {
          "indexed": false,
          "internalType": "address",
          "name": "account",
          "type": "address"
        }
      ],
      "name": "Paused",
      "type": "event"
    },
    {
      "anonymous": false,
      "inputs": [
        {
          "indexed": true,
          "internalType": "address",
          "name": "from",
          "type": "address"
        },
        {
          "indexed": true,
          "internalType": "address",
          "name": "to",
          "type": "address"
        },
        {
          "indexed": true,
          "internalType": "uint256",
          "name": "tokenId",
          "type": "uint256"
        }
      ],
      "name": "Transfer",
      "type": "event"
    },
    {
      "anonymous": false,
      "inputs": [
        {
          "indexed": true,
          "internalType": "uint256",
          "name": "tokenId",
          "type": "uint256"
        }
      ],
      "name": "TransferIn",
      "type": "event"
    },
    {
      "anonymous": false,
      "inputs": [
        {
          "indexed": true,
          "internalType": "uint256",
          "name": "tokenId",
          "type": "uint256"
        }
      ],
      "name": "TransferIn2",
      "type": "event"
    },
    {
      "anonymous": false,
      "inputs": [
        {
          "indexed": true,
          "internalType": "uint256",
          "name": "tokenId",
          "type": "uint256"
        }
      ],
      "name": "TransferInB",
      "type": "event"
    },
    {
      "anonymous": false,
      "inputs": [
        {
          "indexed": false,
          "internalType": "address",
          "name": "account",
          "type": "address"
        }
      ],
      "name": "Unpaused",
      "type": "event"
    },
    {
      "anonymous": false,
      "inputs": [
        {
          "indexed": true,
          "internalType": "uint256",
          "name": "tokenId",
          "type": "uint256"
        }
      ],
      "name": "Unwrapped",
      "type": "event"
    },
    {
      "anonymous": false,
      "inputs": [
        {
          "indexed": true,
          "internalType": "uint256",
          "name": "tokenId",
          "type": "uint256"
        }
      ],
      "name": "Wrapped",
      "type": "event"
    },
    {
      "stateMutability": "payable",
      "type": "fallback"
    },
    {
      "inputs": [
        {
          "internalType": "address",
          "name": "to",
          "type": "address"
        },
        {
          "internalType": "uint256",
          "name": "tokenId",
          "type": "uint256"
        }
      ],
      "name": "approve",
      "outputs": [],
      "stateMutability": "nonpayable",
      "type": "function"
    },
    {
      "inputs": [
        {
          "internalType": "address",
          "name": "owner",
          "type": "address"
        }
      ],
      "name": "balanceOf",
      "outputs": [
        {
          "internalType": "uint256",
          "name": "",
          "type": "uint256"
        }
      ],
      "stateMutability": "view",
      "type": "function"
    },
    {
      "inputs": [
        {
          "internalType": "uint256",
          "name": "tokenId",
          "type": "uint256"
        }
      ],
      "name": "burn",
      "outputs": [],
      "stateMutability": "nonpayable",
      "type": "function"
    },
    {
      "inputs": [
        {
          "internalType": "uint256",
          "name": "tokenId_",
          "type": "uint256"
        }
      ],
      "name": "emergencyMintWrapped",
      "outputs": [],
      "stateMutability": "nonpayable",
      "type": "function"
    },
    {
      "inputs": [
        {
          "internalType": "uint256",
          "name": "tokenId",
          "type": "uint256"
        }
      ],
      "name": "getApproved",
      "outputs": [
        {
          "internalType": "address",
          "name": "",
          "type": "address"
        }
      ],
      "stateMutability": "view",
      "type": "function"
    },
    {
      "inputs": [
        {
          "internalType": "address",
          "name": "owner",
          "type": "address"
        },
        {
          "internalType": "address",
          "name": "operator",
          "type": "address"
        }
      ],
      "name": "isApprovedForAll",
      "outputs": [
        {
          "internalType": "bool",
          "name": "",
          "type": "bool"
        }
      ],
      "stateMutability": "view",
      "type": "function"
    },
    {
      "inputs": [],
      "name": "name",
      "outputs": [
        {
          "internalType": "string",
          "name": "",
          "type": "string"
        }
      ],
      "stateMutability": "view",
      "type": "function"
    },
    {
      "inputs": [
        {
          "internalType": "address",
          "name": "operator_",
          "type": "address"
        },
        {
          "internalType": "address",
          "name": "from_",
          "type": "address"
        },
        {
          "internalType": "uint256",
          "name": "tokenId_",
          "type": "uint256"
        },
        {
          "internalType": "bytes",
          "name": "data_",
          "type": "bytes"
        }
      ],
      "name": "onERC721Received",
      "outputs": [
        {
          "internalType": "bytes4",
          "name": "",
          "type": "bytes4"
        }
      ],
      "stateMutability": "nonpayable",
      "type": "function"
    },
    {
      "inputs": [],
      "name": "owner",
      "outputs": [
        {
          "internalType": "address",
          "name": "",
          "type": "address"
        }
      ],
      "stateMutability": "view",
      "type": "function"
    },
    {
      "inputs": [
        {
          "internalType": "uint256",
          "name": "tokenId",
          "type": "uint256"
        }
      ],
      "name": "ownerOf",
      "outputs": [
        {
          "internalType": "address",
          "name": "",
          "type": "address"
        }
      ],
      "stateMutability": "view",
      "type": "function"
    },
    {
      "inputs": [],
      "name": "pause",
      "outputs": [],
      "stateMutability": "nonpayable",
      "type": "function"
    },
    {
      "inputs": [],
      "name": "paused",
      "outputs": [
        {
          "internalType": "bool",
          "name": "",
          "type": "bool"
        }
      ],
      "stateMutability": "view",
      "type": "function"
    },
    {
      "inputs": [],
      "name": "renounceOwnership",
      "outputs": [],
      "stateMutability": "nonpayable",
      "type": "function"
    },
    {
      "inputs": [
        {
          "internalType": "address",
          "name": "from",
          "type": "address"
        },
        {
          "internalType": "address",
          "name": "to",
          "type": "address"
        },
        {
          "internalType": "uint256",
          "name": "tokenId",
          "type": "uint256"
        }
      ],
      "name": "safeTransferFrom",
      "outputs": [],
      "stateMutability": "nonpayable",
      "type": "function"
    },
    {
      "inputs": [
        {
          "internalType": "address",
          "name": "from",
          "type": "address"
        },
        {
          "internalType": "address",
          "name": "to",
          "type": "address"
        },
        {
          "internalType": "uint256",
          "name": "tokenId",
          "type": "uint256"
        },
        {
          "internalType": "bytes",
          "name": "_data",
          "type": "bytes"
        }
      ],
      "name": "safeTransferFrom",
      "outputs": [],
      "stateMutability": "nonpayable",
      "type": "function"
    },
    {
      "inputs": [
        {
          "internalType": "address",
          "name": "operator",
          "type": "address"
        },
        {
          "internalType": "bool",
          "name": "approved",
          "type": "bool"
        }
      ],
      "name": "setApprovalForAll",
      "outputs": [],
      "stateMutability": "nonpayable",
      "type": "function"
    },
    {
      "inputs": [
        {
          "internalType": "bytes4",
          "name": "interfaceId",
          "type": "bytes4"
        }
      ],
      "name": "supportsInterface",
      "outputs": [
        {
          "internalType": "bool",
          "name": "",
          "type": "bool"
        }
      ],
      "stateMutability": "view",
      "type": "function"
    },
    {
      "inputs": [],
      "name": "symbol",
      "outputs": [
        {
          "internalType": "string",
          "name": "",
          "type": "string"
        }
      ],
      "stateMutability": "view",
      "type": "function"
    },
    {
      "inputs": [
        {
          "internalType": "uint256",
          "name": "tokenId",
          "type": "uint256"
        }
      ],
      "name": "tokenURI",
      "outputs": [
        {
          "internalType": "string",
          "name": "",
          "type": "string"
        }
      ],
      "stateMutability": "view",
      "type": "function"
    },
    {
      "inputs": [
        {
          "internalType": "address",
          "name": "from",
          "type": "address"
        },
        {
          "internalType": "address",
          "name": "to",
          "type": "address"
        },
        {
          "internalType": "uint256",
          "name": "tokenId",
          "type": "uint256"
        }
      ],
      "name": "transferFrom",
      "outputs": [],
      "stateMutability": "nonpayable",
      "type": "function"
    },
    {
      "inputs": [
        {
          "internalType": "address",
          "name": "newOwner",
          "type": "address"
        }
      ],
      "name": "transferOwnership",
      "outputs": [],
      "stateMutability": "nonpayable",
      "type": "function"
    },
    {
      "inputs": [],
      "name": "unpause",
      "outputs": [],
      "stateMutability": "nonpayable",
      "type": "function"
    },
    {
      "inputs": [
        {
          "internalType": "uint256[]",
          "name": "tokenIds_",
          "type": "uint256[]"
        }
      ],
      "name": "unwrap",
      "outputs": [],
      "stateMutability": "nonpayable",
      "type": "function"
    },
    {
      "inputs": [
        {
          "internalType": "address",
          "name": "token",
          "type": "address"
        }
      ],
      "name": "withdrawERC20",
      "outputs": [],
      "stateMutability": "nonpayable",
      "type": "function"
    },
    {
      "inputs": [],
      "name": "withdrawETH",
      "outputs": [],
      "stateMutability": "nonpayable",
      "type": "function"
    },
    {
      "inputs": [
        {
          "internalType": "uint256[]",
          "name": "tokenIds_",
          "type": "uint256[]"
        }
      ],
      "name": "wrap",
      "outputs": [],
      "stateMutability": "nonpayable",
      "type": "function"
    },
    {
      "inputs": [
        {
          "internalType": "uint256",
          "name": "tokenId_",
          "type": "uint256"
        }
      ],
      "name": "wrapOne",
      "outputs": [],
      "stateMutability": "nonpayable",
      "type": "function"
    },
    {
      "stateMutability": "payable",
      "type": "receive"
    }
  ],
  "bytecode": "0x60a06040523480156200001157600080fd5b506040516200481b3803806200481b833981810160405281019062000037919062000335565b6040518060400160405280600981526020017f44657274626572647300000000000000000000000000000000000000000000008152506040518060400160405280600481526020017f44455254000000000000000000000000000000000000000000000000000000008152508160009080519060200190620000bb9291906200021b565b508060019080519060200190620000d49291906200021b565b5050506000600660006101000a81548160ff02191690831515021790555062000112620001066200014d60201b60201c565b6200015560201b60201c565b8073ffffffffffffffffffffffffffffffffffffffff1660808173ffffffffffffffffffffffffffffffffffffffff168152505050620003cc565b600033905090565b6000600660019054906101000a900473ffffffffffffffffffffffffffffffffffffffff16905081600660016101000a81548173ffffffffffffffffffffffffffffffffffffffff021916908373ffffffffffffffffffffffffffffffffffffffff1602179055508173ffffffffffffffffffffffffffffffffffffffff168173ffffffffffffffffffffffffffffffffffffffff167f8be0079c531659141344cd1fd0a4f28419497f9722a3daafe3b4186f6b6457e060405160405180910390a35050565b828054620002299062000396565b90600052602060002090601f0160209004810192826200024d576000855562000299565b82601f106200026857805160ff191683800117855562000299565b8280016001018555821562000299579182015b82811115620002985782518255916020019190600101906200027b565b5b509050620002a89190620002ac565b5090565b5b80821115620002c7576000816000905550600101620002ad565b5090565b600080fd5b600073ffffffffffffffffffffffffffffffffffffffff82169050919050565b6000620002fd82620002d0565b9050919050565b6200030f81620002f0565b81146200031b57600080fd5b50565b6000815190506200032f8162000304565b92915050565b6000602082840312156200034e576200034d620002cb565b5b60006200035e848285016200031e565b91505092915050565b7f4e487b7100000000000000000000000000000000000000000000000000000000600052602260045260246000fd5b60006002820490506001821680620003af57607f821691505b60208210811415620003c657620003c562000367565b5b50919050565b6080516144106200040b6000396000818161099101528181610a2501528181610b1701528181610c790152818161146f0152611c3c01526144106000f3fe6080604052600436106101a05760003560e01c806363ac2a4c116100ec578063b88d4fde1161008a578063e086e5ec11610064578063e086e5ec146105a2578063e985e9c5146105b9578063f2fde38b146105f6578063f4f3b2001461061f576101a7565b8063b88d4fde14610513578063c87b56dd1461053c578063cc17a5bf14610579576101a7565b80638456cb59116100c65780638456cb591461047d5780638da5cb5b1461049457806395d89b41146104bf578063a22cb465146104ea576101a7565b806363ac2a4c1461040057806370a0823114610429578063715018a614610466576101a7565b806323b872dd1161015957806342842e0e1161013357806342842e0e1461034657806342966c681461036f5780635c975abb146103985780636352211e146103c3576101a7565b806323b872dd146102dd5780633f44f32c146103065780633f4ba83a1461032f576101a7565b806301ffc9a7146101a957806306fdde03146101e6578063081812fc14610211578063095ea7b31461024e5780631327144514610277578063150b7a02146102a0576101a7565b366101a757005b005b3480156101b557600080fd5b506101d060048036038101906101cb9190612c26565b610648565b6040516101dd9190612c6e565b60405180910390f35b3480156101f257600080fd5b506101fb61072a565b6040516102089190612d22565b60405180910390f35b34801561021d57600080fd5b5061023860048036038101906102339190612d7a565b6107bc565b6040516102459190612de8565b60405180910390f35b34801561025a57600080fd5b5061027560048036038101906102709190612e2f565b610841565b005b34801561028357600080fd5b5061029e60048036038101906102999190612d7a565b610959565b005b3480156102ac57600080fd5b506102c760048036038101906102c29190612fa4565b610a21565b6040516102d49190613036565b60405180910390f35b3480156102e957600080fd5b5061030460048036038101906102ff9190613051565b610b84565b005b34801561031257600080fd5b5061032d60048036038101906103289190612d7a565b610be4565b005b34801561033b57600080fd5b50610344610e9d565b005b34801561035257600080fd5b5061036d60048036038101906103689190613051565b610f23565b005b34801561037b57600080fd5b5061039660048036038101906103919190612d7a565b610f43565b005b3480156103a457600080fd5b506103ad610f9f565b6040516103ba9190612c6e565b60405180910390f35b3480156103cf57600080fd5b506103ea60048036038101906103e59190612d7a565b610fb6565b6040516103f79190612de8565b60405180910390f35b34801561040c57600080fd5b5061042760048036038101906104229190613104565b611068565b005b34801561043557600080fd5b50610450600480360381019061044b9190613151565b6110c2565b60405161045d919061318d565b60405180910390f35b34801561047257600080fd5b5061047b61117a565b005b34801561048957600080fd5b50610492611202565b005b3480156104a057600080fd5b506104a9611288565b6040516104b69190612de8565b60405180910390f35b3480156104cb57600080fd5b506104d46112b2565b6040516104e19190612d22565b60405180910390f35b3480156104f657600080fd5b50610511600480360381019061050c91906131d4565b611344565b005b34801561051f57600080fd5b5061053a60048036038101906105359190612fa4565b61135a565b005b34801561054857600080fd5b50610563600480360381019061055e9190612d7a565b6113bc565b6040516105709190612d22565b60405180910390f35b34801561058557600080fd5b506105a0600480360381019061059b9190613104565b6113ed565b005b3480156105ae57600080fd5b506105b7611573565b005b3480156105c557600080fd5b506105e060048036038101906105db9190613214565b6116a5565b6040516105ed9190612c6e565b60405180910390f35b34801561060257600080fd5b5061061d60048036038101906106189190613151565b611739565b005b34801561062b57600080fd5b5061064660048036038101906106419190613151565b611831565b005b60007f80ac58cd000000000000000000000000000000000000000000000000000000007bffffffffffffffffffffffffffffffffffffffffffffffffffffffff1916827bffffffffffffffffffffffffffffffffffffffffffffffffffffffff1916148061071357507f5b5e139f000000000000000000000000000000000000000000000000000000007bffffffffffffffffffffffffffffffffffffffffffffffffffffffff1916827bffffffffffffffffffffffffffffffffffffffffffffffffffffffff1916145b806107235750610722826119f3565b5b9050919050565b60606000805461073990613283565b80601f016020809104026020016040519081016040528092919081815260200182805461076590613283565b80156107b25780601f10610787576101008083540402835291602001916107b2565b820191906000526020600020905b81548152906001019060200180831161079557829003601f168201915b5050505050905090565b60006107c782611a5d565b610806576040517f08c379a00000000000000000000000000000000000000000000000000000000081526004016107fd90613327565b60405180910390fd5b6004600083815260200190815260200160002060009054906101000a900473ffffffffffffffffffffffffffffffffffffffff169050919050565b600061084c82610fb6565b90508073ffffffffffffffffffffffffffffffffffffffff168373ffffffffffffffffffffffffffffffffffffffff1614156108bd576040517f08c379a00000000000000000000000000000000000000000000000000000000081526004016108b4906133b9565b60405180910390fd5b8073ffffffffffffffffffffffffffffffffffffffff166108dc611ac9565b73ffffffffffffffffffffffffffffffffffffffff16148061090b575061090a81610905611ac9565b6116a5565b5b61094a576040517f08c379a00000000000000000000000000000000000000000000000000000000081526004016109419061344b565b60405180910390fd5b6109548383611ad1565b505050565b7fb76663695cd1fb86a409ee655954005d1d8d1cceb5a12f90aca3e33befd9fcbf60405160405180910390a161098f3082610841565b7f000000000000000000000000000000000000000000000000000000000000000073ffffffffffffffffffffffffffffffffffffffff166342842e0e3330846040518463ffffffff1660e01b81526004016109ec9392919061346b565b600060405180830381600087803b158015610a0657600080fd5b505af1158015610a1a573d6000803e3d6000fd5b5050505050565b60007f000000000000000000000000000000000000000000000000000000000000000073ffffffffffffffffffffffffffffffffffffffff163373ffffffffffffffffffffffffffffffffffffffff161480610aa857503073ffffffffffffffffffffffffffffffffffffffff163373ffffffffffffffffffffffffffffffffffffffff16145b610ae7576040517f08c379a0000000000000000000000000000000000000000000000000000000008152600401610ade906134ee565b60405180910390fd5b7fb76663695cd1fb86a409ee655954005d1d8d1cceb5a12f90aca3e33befd9fcbf60405160405180910390a160007f000000000000000000000000000000000000000000000000000000000000000073ffffffffffffffffffffffffffffffffffffffff163373ffffffffffffffffffffffffffffffffffffffff16149050610b71858286611b8a565b63150b7a0260e01b915050949350505050565b610b95610b8f611ac9565b82611cfc565b610bd4576040517f08c379a0000000000000000000000000000000000000000000000000000000008152600401610bcb90613580565b60405180910390fd5b610bdf838383611dda565b505050565b610bec611ac9565b73ffffffffffffffffffffffffffffffffffffffff16610c0a611288565b73ffffffffffffffffffffffffffffffffffffffff1614610c60576040517f08c379a0000000000000000000000000000000000000000000000000000000008152600401610c57906135ec565b60405180910390fd5b3073ffffffffffffffffffffffffffffffffffffffff167f000000000000000000000000000000000000000000000000000000000000000073ffffffffffffffffffffffffffffffffffffffff16636352211e836040518263ffffffff1660e01b8152600401610cd0919061318d565b602060405180830381865afa158015610ced573d6000803e3d6000fd5b505050506040513d601f19601f82011682018060405250810190610d119190613621565b73ffffffffffffffffffffffffffffffffffffffff161415610e5f57610d3681611a5d565b8015610d7557503073ffffffffffffffffffffffffffffffffffffffff16610d5d82610fb6565b73ffffffffffffffffffffffffffffffffffffffff16145b15610dce57610d9c30610d86611288565b8360405180602001604052806000815250612041565b807f5b8cd8f3a67af1dee11ad4321a05f79a76cc7ea517810fc56d6d96c1e60d368660405160405180910390a2610e5a565b610dd781611a5d565b610e1e57610dec610de6611288565b8261209d565b807f5b8cd8f3a67af1dee11ad4321a05f79a76cc7ea517810fc56d6d96c1e60d368660405160405180910390a2610e59565b6040517f08c379a0000000000000000000000000000000000000000000000000000000008152600401610e50906136c0565b60405180910390fd5b5b610e9a565b6040517f08c379a0000000000000000000000000000000000000000000000000000000008152600401610e9190613752565b60405180910390fd5b50565b610ea5611ac9565b73ffffffffffffffffffffffffffffffffffffffff16610ec3611288565b73ffffffffffffffffffffffffffffffffffffffff1614610f19576040517f08c379a0000000000000000000000000000000000000000000000000000000008152600401610f10906135ec565b60405180910390fd5b610f216120bb565b565b610f3e8383836040518060200160405280600081525061135a565b505050565b610f54610f4e611ac9565b82611cfc565b610f93576040517f08c379a0000000000000000000000000000000000000000000000000000000008152600401610f8a906137e4565b60405180910390fd5b610f9c8161215d565b50565b6000600660009054906101000a900460ff16905090565b6000806002600084815260200190815260200160002060009054906101000a900473ffffffffffffffffffffffffffffffffffffffff169050600073ffffffffffffffffffffffffffffffffffffffff168173ffffffffffffffffffffffffffffffffffffffff16141561105f576040517f08c379a000000000000000000000000000000000000000000000000000000000815260040161105690613876565b60405180910390fd5b80915050919050565b60005b828290508110156110bd576110aa333085858581811061108e5761108d613896565b5b9050602002013560405180602001604052806000815250612041565b80806110b5906138f4565b91505061106b565b505050565b60008073ffffffffffffffffffffffffffffffffffffffff168273ffffffffffffffffffffffffffffffffffffffff161415611133576040517f08c379a000000000000000000000000000000000000000000000000000000000815260040161112a906139af565b60405180910390fd5b600360008373ffffffffffffffffffffffffffffffffffffffff1673ffffffffffffffffffffffffffffffffffffffff168152602001908152602001600020549050919050565b611182611ac9565b73ffffffffffffffffffffffffffffffffffffffff166111a0611288565b73ffffffffffffffffffffffffffffffffffffffff16146111f6576040517f08c379a00000000000000000000000000000000000000000000000000000000081526004016111ed906135ec565b60405180910390fd5b611200600061227a565b565b61120a611ac9565b73ffffffffffffffffffffffffffffffffffffffff16611228611288565b73ffffffffffffffffffffffffffffffffffffffff161461127e576040517f08c379a0000000000000000000000000000000000000000000000000000000008152600401611275906135ec565b60405180910390fd5b611286612340565b565b6000600660019054906101000a900473ffffffffffffffffffffffffffffffffffffffff16905090565b6060600180546112c190613283565b80601f01602080910402602001604051908101604052809291908181526020018280546112ed90613283565b801561133a5780601f1061130f5761010080835404028352916020019161133a565b820191906000526020600020905b81548152906001019060200180831161131d57829003601f168201915b5050505050905090565b61135661134f611ac9565b83836123e3565b5050565b61136b611365611ac9565b83611cfc565b6113aa576040517f08c379a00000000000000000000000000000000000000000000000000000000081526004016113a190613580565b60405180910390fd5b6113b684848484612041565b50505050565b60606113c782612550565b6040516020016113d79190613a0b565b6040516020818303038152906040529050919050565b7fb76663695cd1fb86a409ee655954005d1d8d1cceb5a12f90aca3e33befd9fcbf60405160405180910390a160005b8282905081101561156e5782828281811061143a57611439613896565b5b905060200201357febafcb2d345ae7184c9fa2dd1623717f783b01cf44f149d701fe3a4ce841df0360405160405180910390a27f000000000000000000000000000000000000000000000000000000000000000073ffffffffffffffffffffffffffffffffffffffff166342842e0e33308686868181106114be576114bd613896565b5b905060200201356040518463ffffffff1660e01b81526004016114e39392919061346b565b600060405180830381600087803b1580156114fd57600080fd5b505af1158015611511573d6000803e3d6000fd5b5050505082828281811061152857611527613896565b5b905060200201357f03daf40746d3330f4ef528b15dcf926cb8fe020f96f05a02b71fb7c4943d7c4060405160405180910390a28080611566906138f4565b91505061141c565b505050565b61157b611ac9565b73ffffffffffffffffffffffffffffffffffffffff16611599611288565b73ffffffffffffffffffffffffffffffffffffffff16146115ef576040517f08c379a00000000000000000000000000000000000000000000000000000000081526004016115e6906135ec565b60405180910390fd5b60006115f9611288565b73ffffffffffffffffffffffffffffffffffffffff164760405161161c90613a53565b60006040518083038185875af1925050503d8060008114611659576040519150601f19603f3d011682016040523d82523d6000602084013e61165e565b606091505b50509050806116a2576040517f08c379a000000000000000000000000000000000000000000000000000000000815260040161169990613ab4565b60405180910390fd5b50565b6000600560008473ffffffffffffffffffffffffffffffffffffffff1673ffffffffffffffffffffffffffffffffffffffff16815260200190815260200160002060008373ffffffffffffffffffffffffffffffffffffffff1673ffffffffffffffffffffffffffffffffffffffff16815260200190815260200160002060009054906101000a900460ff16905092915050565b611741611ac9565b73ffffffffffffffffffffffffffffffffffffffff1661175f611288565b73ffffffffffffffffffffffffffffffffffffffff16146117b5576040517f08c379a00000000000000000000000000000000000000000000000000000000081526004016117ac906135ec565b60405180910390fd5b600073ffffffffffffffffffffffffffffffffffffffff168173ffffffffffffffffffffffffffffffffffffffff161415611825576040517f08c379a000000000000000000000000000000000000000000000000000000000815260040161181c90613b46565b60405180910390fd5b61182e8161227a565b50565b611839611ac9565b73ffffffffffffffffffffffffffffffffffffffff16611857611288565b73ffffffffffffffffffffffffffffffffffffffff16146118ad576040517f08c379a00000000000000000000000000000000000000000000000000000000081526004016118a4906135ec565b60405180910390fd5b60008173ffffffffffffffffffffffffffffffffffffffff1663a9059cbb6118d3611288565b8473ffffffffffffffffffffffffffffffffffffffff166370a08231306040518263ffffffff1660e01b815260040161190c9190612de8565b602060405180830381865afa158015611929573d6000803e3d6000fd5b505050506040513d601f19601f8201168201806040525081019061194d9190613b7b565b6040518363ffffffff1660e01b815260040161196a929190613ba8565b6020604051808303816000875af1158015611989573d6000803e3d6000fd5b505050506040513d601f19601f820116820180604052508101906119ad9190613be6565b9050806119ef576040517f08c379a00000000000000000000000000000000000000000000000000000000081526004016119e690613c5f565b60405180910390fd5b5050565b60007f01ffc9a7000000000000000000000000000000000000000000000000000000007bffffffffffffffffffffffffffffffffffffffffffffffffffffffff1916827bffffffffffffffffffffffffffffffffffffffffffffffffffffffff1916149050919050565b60008073ffffffffffffffffffffffffffffffffffffffff166002600084815260200190815260200160002060009054906101000a900473ffffffffffffffffffffffffffffffffffffffff1673ffffffffffffffffffffffffffffffffffffffff1614159050919050565b600033905090565b816004600083815260200190815260200160002060006101000a81548173ffffffffffffffffffffffffffffffffffffffff021916908373ffffffffffffffffffffffffffffffffffffffff160217905550808273ffffffffffffffffffffffffffffffffffffffff16611b4483610fb6565b73ffffffffffffffffffffffffffffffffffffffff167f8c5be1e5ebec7d5bd14f71427d1e84f3dd0314c0f7b2291e5b200ac8c7c3b92560405160405180910390a45050565b8115611c3a57611b9981611a5d565b8015611bd857503073ffffffffffffffffffffffffffffffffffffffff16611bc082610fb6565b73ffffffffffffffffffffffffffffffffffffffff16145b15611bfd57611bf830848360405180602001604052806000815250612041565b611c08565b611c07838261209d565b5b807f5b8cd8f3a67af1dee11ad4321a05f79a76cc7ea517810fc56d6d96c1e60d368660405160405180910390a2611cf7565b7f000000000000000000000000000000000000000000000000000000000000000073ffffffffffffffffffffffffffffffffffffffff166342842e0e3085846040518463ffffffff1660e01b8152600401611c979392919061346b565b600060405180830381600087803b158015611cb157600080fd5b505af1158015611cc5573d6000803e3d6000fd5b50505050807fbeaa92c6354c6dcf375d2c514352b2c11bc865784722e5dd9b267e606eb5fc5f60405160405180910390a25b505050565b6000611d0782611a5d565b611d46576040517f08c379a0000000000000000000000000000000000000000000000000000000008152600401611d3d90613cf1565b60405180910390fd5b6000611d5183610fb6565b90508073ffffffffffffffffffffffffffffffffffffffff168473ffffffffffffffffffffffffffffffffffffffff161480611dc057508373ffffffffffffffffffffffffffffffffffffffff16611da8846107bc565b73ffffffffffffffffffffffffffffffffffffffff16145b80611dd15750611dd081856116a5565b5b91505092915050565b8273ffffffffffffffffffffffffffffffffffffffff16611dfa82610fb6565b73ffffffffffffffffffffffffffffffffffffffff1614611e50576040517f08c379a0000000000000000000000000000000000000000000000000000000008152600401611e4790613d83565b60405180910390fd5b600073ffffffffffffffffffffffffffffffffffffffff168273ffffffffffffffffffffffffffffffffffffffff161415611ec0576040517f08c379a0000000000000000000000000000000000000000000000000000000008152600401611eb790613e15565b60405180910390fd5b611ecb8383836125f7565b611ed6600082611ad1565b6001600360008573ffffffffffffffffffffffffffffffffffffffff1673ffffffffffffffffffffffffffffffffffffffff1681526020019081526020016000206000828254611f269190613e35565b925050819055506001600360008473ffffffffffffffffffffffffffffffffffffffff1673ffffffffffffffffffffffffffffffffffffffff1681526020019081526020016000206000828254611f7d9190613e69565b92505081905550816002600083815260200190815260200160002060006101000a81548173ffffffffffffffffffffffffffffffffffffffff021916908373ffffffffffffffffffffffffffffffffffffffff160217905550808273ffffffffffffffffffffffffffffffffffffffff168473ffffffffffffffffffffffffffffffffffffffff167fddf252ad1be2c89b69c2b068fc378daa952ba7f163c4a11628f55a4df523b3ef60405160405180910390a461203c83838361264f565b505050565b61204c848484611dda565b61205884848484612654565b612097576040517f08c379a000000000000000000000000000000000000000000000000000000000815260040161208e90613f31565b60405180910390fd5b50505050565b6120b78282604051806020016040528060008152506127dc565b5050565b6120c3610f9f565b612102576040517f08c379a00000000000000000000000000000000000000000000000000000000081526004016120f990613f9d565b60405180910390fd5b6000600660006101000a81548160ff0219169083151502179055507f5db9ee0a495bf2e6ff9c91a7834c1ba4fdd244a5e8aa4e537bd38aeae4b073aa612146611ac9565b6040516121539190612de8565b60405180910390a1565b600061216882610fb6565b9050612176816000846125f7565b612181600083611ad1565b6001600360008373ffffffffffffffffffffffffffffffffffffffff1673ffffffffffffffffffffffffffffffffffffffff16815260200190815260200160002060008282546121d19190613e35565b925050819055506002600083815260200190815260200160002060006101000a81549073ffffffffffffffffffffffffffffffffffffffff021916905581600073ffffffffffffffffffffffffffffffffffffffff168273ffffffffffffffffffffffffffffffffffffffff167fddf252ad1be2c89b69c2b068fc378daa952ba7f163c4a11628f55a4df523b3ef60405160405180910390a46122768160008461264f565b5050565b6000600660019054906101000a900473ffffffffffffffffffffffffffffffffffffffff16905081600660016101000a81548173ffffffffffffffffffffffffffffffffffffffff021916908373ffffffffffffffffffffffffffffffffffffffff1602179055508173ffffffffffffffffffffffffffffffffffffffff168173ffffffffffffffffffffffffffffffffffffffff167f8be0079c531659141344cd1fd0a4f28419497f9722a3daafe3b4186f6b6457e060405160405180910390a35050565b612348610f9f565b15612388576040517f08c379a000000000000000000000000000000000000000000000000000000000815260040161237f90614009565b60405180910390fd5b6001600660006101000a81548160ff0219169083151502179055507f62e78cea01bee320cd4e420270b5ea74000d11b0c9f74754ebdbfc544b05a2586123cc611ac9565b6040516123d99190612de8565b60405180910390a1565b8173ffffffffffffffffffffffffffffffffffffffff168373ffffffffffffffffffffffffffffffffffffffff161415612452576040517f08c379a000000000000000000000000000000000000000000000000000000000815260040161244990614075565b60405180910390fd5b80600560008573ffffffffffffffffffffffffffffffffffffffff1673ffffffffffffffffffffffffffffffffffffffff16815260200190815260200160002060008473ffffffffffffffffffffffffffffffffffffffff1673ffffffffffffffffffffffffffffffffffffffff16815260200190815260200160002060006101000a81548160ff0219169083151502179055508173ffffffffffffffffffffffffffffffffffffffff168373ffffffffffffffffffffffffffffffffffffffff167f17307eab39ab6107e8899845ad3d59bd9653f200f220920489ca2b5937696c31836040516125439190612c6e565b60405180910390a3505050565b606061255b82611a5d565b61259a576040517f08c379a000000000000000000000000000000000000000000000000000000000815260040161259190614107565b60405180910390fd5b60006125a4612837565b905060008151116125c457604051806020016040528060008152506125ef565b806125ce84612857565b6040516020016125df929190614127565b6040516020818303038152906040525b915050919050565b6125ff610f9f565b1561263f576040517f08c379a000000000000000000000000000000000000000000000000000000000815260040161263690614009565b60405180910390fd5b61264a8383836129b8565b505050565b505050565b60006126758473ffffffffffffffffffffffffffffffffffffffff166129bd565b156127cf578373ffffffffffffffffffffffffffffffffffffffff1663150b7a0261269e611ac9565b8786866040518563ffffffff1660e01b81526004016126c094939291906141a0565b6020604051808303816000875af19250505080156126fc57506040513d601f19601f820116820180604052508101906126f99190614201565b60015b61277f573d806000811461272c576040519150601f19603f3d011682016040523d82523d6000602084013e612731565b606091505b50600081511415612777576040517f08c379a000000000000000000000000000000000000000000000000000000000815260040161276e90613f31565b60405180910390fd5b805181602001fd5b63150b7a0260e01b7bffffffffffffffffffffffffffffffffffffffffffffffffffffffff1916817bffffffffffffffffffffffffffffffffffffffffffffffffffffffff1916149150506127d4565b600190505b949350505050565b6127e683836129e0565b6127f36000848484612654565b612832576040517f08c379a000000000000000000000000000000000000000000000000000000000815260040161282990613f31565b60405180910390fd5b505050565b606060405180608001604052806043815260200161439860439139905090565b6060600082141561289f576040518060400160405280600181526020017f300000000000000000000000000000000000000000000000000000000000000081525090506129b3565b600082905060005b600082146128d15780806128ba906138f4565b915050600a826128ca919061425d565b91506128a7565b60008167ffffffffffffffff8111156128ed576128ec612e79565b5b6040519080825280601f01601f19166020018201604052801561291f5781602001600182028036833780820191505090505b5090505b600085146129ac576001826129389190613e35565b9150600a85612947919061428e565b60306129539190613e69565b60f81b81838151811061296957612968613896565b5b60200101907effffffffffffffffffffffffffffffffffffffffffffffffffffffffffffff1916908160001a905350600a856129a5919061425d565b9450612923565b8093505050505b919050565b505050565b6000808273ffffffffffffffffffffffffffffffffffffffff163b119050919050565b600073ffffffffffffffffffffffffffffffffffffffff168273ffffffffffffffffffffffffffffffffffffffff161415612a50576040517f08c379a0000000000000000000000000000000000000000000000000000000008152600401612a479061430b565b60405180910390fd5b612a5981611a5d565b15612a99576040517f08c379a0000000000000000000000000000000000000000000000000000000008152600401612a9090614377565b60405180910390fd5b612aa5600083836125f7565b6001600360008473ffffffffffffffffffffffffffffffffffffffff1673ffffffffffffffffffffffffffffffffffffffff1681526020019081526020016000206000828254612af59190613e69565b92505081905550816002600083815260200190815260200160002060006101000a81548173ffffffffffffffffffffffffffffffffffffffff021916908373ffffffffffffffffffffffffffffffffffffffff160217905550808273ffffffffffffffffffffffffffffffffffffffff16600073ffffffffffffffffffffffffffffffffffffffff167fddf252ad1be2c89b69c2b068fc378daa952ba7f163c4a11628f55a4df523b3ef60405160405180910390a4612bb66000838361264f565b5050565b6000604051905090565b600080fd5b600080fd5b60007fffffffff0000000000000000000000000000000000000000000000000000000082169050919050565b612c0381612bce565b8114612c0e57600080fd5b50565b600081359050612c2081612bfa565b92915050565b600060208284031215612c3c57612c3b612bc4565b5b6000612c4a84828501612c11565b91505092915050565b60008115159050919050565b612c6881612c53565b82525050565b6000602082019050612c836000830184612c5f565b92915050565b600081519050919050565b600082825260208201905092915050565b60005b83811015612cc3578082015181840152602081019050612ca8565b83811115612cd2576000848401525b50505050565b6000601f19601f8301169050919050565b6000612cf482612c89565b612cfe8185612c94565b9350612d0e818560208601612ca5565b612d1781612cd8565b840191505092915050565b60006020820190508181036000830152612d3c8184612ce9565b905092915050565b6000819050919050565b612d5781612d44565b8114612d6257600080fd5b50565b600081359050612d7481612d4e565b92915050565b600060208284031215612d9057612d8f612bc4565b5b6000612d9e84828501612d65565b91505092915050565b600073ffffffffffffffffffffffffffffffffffffffff82169050919050565b6000612dd282612da7565b9050919050565b612de281612dc7565b82525050565b6000602082019050612dfd6000830184612dd9565b92915050565b612e0c81612dc7565b8114612e1757600080fd5b50565b600081359050612e2981612e03565b92915050565b60008060408385031215612e4657612e45612bc4565b5b6000612e5485828601612e1a565b9250506020612e6585828601612d65565b9150509250929050565b600080fd5b600080fd5b7f4e487b7100000000000000000000000000000000000000000000000000000000600052604160045260246000fd5b612eb182612cd8565b810181811067ffffffffffffffff82111715612ed057612ecf612e79565b5b80604052505050565b6000612ee3612bba565b9050612eef8282612ea8565b919050565b600067ffffffffffffffff821115612f0f57612f0e612e79565b5b612f1882612cd8565b9050602081019050919050565b82818337600083830152505050565b6000612f47612f4284612ef4565b612ed9565b905082815260208101848484011115612f6357612f62612e74565b5b612f6e848285612f25565b509392505050565b600082601f830112612f8b57612f8a612e6f565b5b8135612f9b848260208601612f34565b91505092915050565b60008060008060808587031215612fbe57612fbd612bc4565b5b6000612fcc87828801612e1a565b9450506020612fdd87828801612e1a565b9350506040612fee87828801612d65565b925050606085013567ffffffffffffffff81111561300f5761300e612bc9565b5b61301b87828801612f76565b91505092959194509250565b61303081612bce565b82525050565b600060208201905061304b6000830184613027565b92915050565b60008060006060848603121561306a57613069612bc4565b5b600061307886828701612e1a565b935050602061308986828701612e1a565b925050604061309a86828701612d65565b9150509250925092565b600080fd5b600080fd5b60008083601f8401126130c4576130c3612e6f565b5b8235905067ffffffffffffffff8111156130e1576130e06130a4565b5b6020830191508360208202830111156130fd576130fc6130a9565b5b9250929050565b6000806020838503121561311b5761311a612bc4565b5b600083013567ffffffffffffffff81111561313957613138612bc9565b5b613145858286016130ae565b92509250509250929050565b60006020828403121561316757613166612bc4565b5b600061317584828501612e1a565b91505092915050565b61318781612d44565b82525050565b60006020820190506131a2600083018461317e565b92915050565b6131b181612c53565b81146131bc57600080fd5b50565b6000813590506131ce816131a8565b92915050565b600080604083850312156131eb576131ea612bc4565b5b60006131f985828601612e1a565b925050602061320a858286016131bf565b9150509250929050565b6000806040838503121561322b5761322a612bc4565b5b600061323985828601612e1a565b925050602061324a85828601612e1a565b9150509250929050565b7f4e487b7100000000000000000000000000000000000000000000000000000000600052602260045260246000fd5b6000600282049050600182168061329b57607f821691505b602082108114156132af576132ae613254565b5b50919050565b7f4552433732313a20617070726f76656420717565727920666f72206e6f6e657860008201527f697374656e7420746f6b656e0000000000000000000000000000000000000000602082015250565b6000613311602c83612c94565b915061331c826132b5565b604082019050919050565b6000602082019050818103600083015261334081613304565b9050919050565b7f4552433732313a20617070726f76616c20746f2063757272656e74206f776e6560008201527f7200000000000000000000000000000000000000000000000000000000000000602082015250565b60006133a3602183612c94565b91506133ae82613347565b604082019050919050565b600060208201905081810360008301526133d281613396565b9050919050565b7f4552433732313a20617070726f76652063616c6c6572206973206e6f74206f7760008201527f6e6572206e6f7220617070726f76656420666f7220616c6c0000000000000000602082015250565b6000613435603883612c94565b9150613440826133d9565b604082019050919050565b6000602082019050818103600083015261346481613428565b9050919050565b60006060820190506134806000830186612dd9565b61348d6020830185612dd9565b61349a604083018461317e565b949350505050565b7f6d7573742062652054656d7042697264206f7220446572744265726400000000600082015250565b60006134d8601c83612c94565b91506134e3826134a2565b602082019050919050565b60006020820190508181036000830152613507816134cb565b9050919050565b7f4552433732313a207472616e736665722063616c6c6572206973206e6f74206f60008201527f776e6572206e6f7220617070726f766564000000000000000000000000000000602082015250565b600061356a603183612c94565b91506135758261350e565b604082019050919050565b600060208201905081810360008301526135998161355d565b9050919050565b7f4f776e61626c653a2063616c6c6572206973206e6f7420746865206f776e6572600082015250565b60006135d6602083612c94565b91506135e1826135a0565b602082019050919050565b60006020820190508181036000830152613605816135c9565b9050919050565b60008151905061361b81612e03565b92915050565b60006020828403121561363757613636612bc4565b5b60006136458482850161360c565b91505092915050565b7f446572742042657264206d696e74656420616e6420646973747269627574656460008201527f20616c7265616479000000000000000000000000000000000000000000000000602082015250565b60006136aa602883612c94565b91506136b58261364e565b604082019050919050565b600060208201905081810360008301526136d98161369d565b9050919050565b7f74656d7042697264206973206e6f74206c6f636b656420696e20636f6e74726160008201527f6374000000000000000000000000000000000000000000000000000000000000602082015250565b600061373c602283612c94565b9150613747826136e0565b604082019050919050565b6000602082019050818103600083015261376b8161372f565b9050919050565b7f4552433732314275726e61626c653a2063616c6c6572206973206e6f74206f7760008201527f6e6572206e6f7220617070726f76656400000000000000000000000000000000602082015250565b60006137ce603083612c94565b91506137d982613772565b604082019050919050565b600060208201905081810360008301526137fd816137c1565b9050919050565b7f4552433732313a206f776e657220717565727920666f72206e6f6e657869737460008201527f656e7420746f6b656e0000000000000000000000000000000000000000000000602082015250565b6000613860602983612c94565b915061386b82613804565b604082019050919050565b6000602082019050818103600083015261388f81613853565b9050919050565b7f4e487b7100000000000000000000000000000000000000000000000000000000600052603260045260246000fd5b7f4e487b7100000000000000000000000000000000000000000000000000000000600052601160045260246000fd5b60006138ff82612d44565b91507fffffffffffffffffffffffffffffffffffffffffffffffffffffffffffffffff821415613932576139316138c5565b5b600182019050919050565b7f4552433732313a2062616c616e636520717565727920666f7220746865207a6560008201527f726f206164647265737300000000000000000000000000000000000000000000602082015250565b6000613999602a83612c94565b91506139a48261393d565b604082019050919050565b600060208201905081810360008301526139c88161398c565b9050919050565b600081905092915050565b60006139e582612c89565b6139ef81856139cf565b93506139ff818560208601612ca5565b80840191505092915050565b6000613a1782846139da565b915081905092915050565b600081905092915050565b50565b6000613a3d600083613a22565b9150613a4882613a2d565b600082019050919050565b6000613a5e82613a30565b9150819050919050565b7f5472616e73666572206661696c65642e00000000000000000000000000000000600082015250565b6000613a9e601083612c94565b9150613aa982613a68565b602082019050919050565b60006020820190508181036000830152613acd81613a91565b9050919050565b7f4f776e61626c653a206e6577206f776e657220697320746865207a65726f206160008201527f6464726573730000000000000000000000000000000000000000000000000000602082015250565b6000613b30602683612c94565b9150613b3b82613ad4565b604082019050919050565b60006020820190508181036000830152613b5f81613b23565b9050919050565b600081519050613b7581612d4e565b92915050565b600060208284031215613b9157613b90612bc4565b5b6000613b9f84828501613b66565b91505092915050565b6000604082019050613bbd6000830185612dd9565b613bca602083018461317e565b9392505050565b600081519050613be0816131a8565b92915050565b600060208284031215613bfc57613bfb612bc4565b5b6000613c0a84828501613bd1565b91505092915050565b7f5472616e73666572206661696c65640000000000000000000000000000000000600082015250565b6000613c49600f83612c94565b9150613c5482613c13565b602082019050919050565b60006020820190508181036000830152613c7881613c3c565b9050919050565b7f4552433732313a206f70657261746f7220717565727920666f72206e6f6e657860008201527f697374656e7420746f6b656e0000000000000000000000000000000000000000602082015250565b6000613cdb602c83612c94565b9150613ce682613c7f565b604082019050919050565b60006020820190508181036000830152613d0a81613cce565b9050919050565b7f4552433732313a207472616e736665722066726f6d20696e636f72726563742060008201527f6f776e6572000000000000000000000000000000000000000000000000000000602082015250565b6000613d6d602583612c94565b9150613d7882613d11565b604082019050919050565b60006020820190508181036000830152613d9c81613d60565b9050919050565b7f4552433732313a207472616e7366657220746f20746865207a65726f2061646460008201527f7265737300000000000000000000000000000000000000000000000000000000602082015250565b6000613dff602483612c94565b9150613e0a82613da3565b604082019050919050565b60006020820190508181036000830152613e2e81613df2565b9050919050565b6000613e4082612d44565b9150613e4b83612d44565b925082821015613e5e57613e5d6138c5565b5b828203905092915050565b6000613e7482612d44565b9150613e7f83612d44565b9250827fffffffffffffffffffffffffffffffffffffffffffffffffffffffffffffffff03821115613eb457613eb36138c5565b5b828201905092915050565b7f4552433732313a207472616e7366657220746f206e6f6e20455243373231526560008201527f63656976657220696d706c656d656e7465720000000000000000000000000000602082015250565b6000613f1b603283612c94565b9150613f2682613ebf565b604082019050919050565b60006020820190508181036000830152613f4a81613f0e565b9050919050565b7f5061757361626c653a206e6f7420706175736564000000000000000000000000600082015250565b6000613f87601483612c94565b9150613f9282613f51565b602082019050919050565b60006020820190508181036000830152613fb681613f7a565b9050919050565b7f5061757361626c653a2070617573656400000000000000000000000000000000600082015250565b6000613ff3601083612c94565b9150613ffe82613fbd565b602082019050919050565b6000602082019050818103600083015261402281613fe6565b9050919050565b7f4552433732313a20617070726f766520746f2063616c6c657200000000000000600082015250565b600061405f601983612c94565b915061406a82614029565b602082019050919050565b6000602082019050818103600083015261408e81614052565b9050919050565b7f4552433732314d657461646174613a2055524920717565727920666f72206e6f60008201527f6e6578697374656e7420746f6b656e0000000000000000000000000000000000602082015250565b60006140f1602f83612c94565b91506140fc82614095565b604082019050919050565b60006020820190508181036000830152614120816140e4565b9050919050565b600061413382856139da565b915061413f82846139da565b91508190509392505050565b600081519050919050565b600082825260208201905092915050565b60006141728261414b565b61417c8185614156565b935061418c818560208601612ca5565b61419581612cd8565b840191505092915050565b60006080820190506141b56000830187612dd9565b6141c26020830186612dd9565b6141cf604083018561317e565b81810360608301526141e18184614167565b905095945050505050565b6000815190506141fb81612bfa565b92915050565b60006020828403121561421757614216612bc4565b5b6000614225848285016141ec565b91505092915050565b7f4e487b7100000000000000000000000000000000000000000000000000000000600052601260045260246000fd5b600061426882612d44565b915061427383612d44565b9250826142835761428261422e565b5b828204905092915050565b600061429982612d44565b91506142a483612d44565b9250826142b4576142b361422e565b5b828206905092915050565b7f4552433732313a206d696e7420746f20746865207a65726f2061646472657373600082015250565b60006142f5602083612c94565b9150614300826142bf565b602082019050919050565b60006020820190508181036000830152614324816142e8565b9050919050565b7f4552433732313a20746f6b656e20616c7265616479206d696e74656400000000600082015250565b6000614361601c83612c94565b915061436c8261432b565b602082019050919050565b6000602082019050818103600083015261439081614354565b905091905056fe697066733a2f2f62616679626569647235663372716c6e6e6968717136727379646c746d7a6e62737a357a63726233347778717233376a7168366b627a75697136792fa2646970667358221220bf85557c462c0f3e2490ac0e86469491b783d77d431025ed03503882d1278bcc64736f6c634300080a0033",
  "linkReferences": {},
  "deployedLinkReferences": {}
}