{
  "_format": "hh-sol-artifact-1",
  "contractName": "FreeBirds",
  "sourceName": "contracts/freebirds.sol",
  "abi": [
    {
      "inputs": [
        {
          "internalType": "contract IERC721",
          "name": "_dirtbirds",
          "type": "address"
        }
      ],
      "stateMutability": "nonpayable",
      "type": "constructor"
    },
    {
      "anonymous": false,
      "inputs": [
        {
          "indexed": true,
          "internalType": "address",
          "name": "owner",
          "type": "address"
        },
        {
          "indexed": true,
          "internalType": "address",
          "name": "approved",
          "type": "address"
        },
        {
          "indexed": true,
          "internalType": "uint256",
          "name": "tokenId",
          "type": "uint256"
        }
      ],
      "name": "Approval",
      "type": "event"
    },
    {
      "anonymous": false,
      "inputs": [
        {
          "indexed": true,
          "internalType": "address",
          "name": "owner",
          "type": "address"
        },
        {
          "indexed": true,
          "internalType": "address",
          "name": "operator",
          "type": "address"
        },
        {
          "indexed": false,
          "internalType": "bool",
          "name": "approved",
          "type": "bool"
        }
      ],
      "name": "ApprovalForAll",
      "type": "event"
    },
    {
      "anonymous": false,
      "inputs": [
        {
          "indexed": true,
          "internalType": "address",
          "name": "previousOwner",
          "type": "address"
        },
        {
          "indexed": true,
          "internalType": "address",
          "name": "newOwner",
          "type": "address"
        }
      ],
      "name": "OwnershipTransferred",
      "type": "event"
    },
    {
      "anonymous": false,
      "inputs": [
        {
          "indexed": false,
          "internalType": "address",
          "name": "account",
          "type": "address"
        }
      ],
      "name": "Paused",
      "type": "event"
    },
    {
      "anonymous": false,
      "inputs": [
        {
          "indexed": false,
          "internalType": "string",
          "name": "msg",
          "type": "string"
        }
      ],
      "name": "Ping",
      "type": "event"
    },
    {
      "anonymous": false,
      "inputs": [
        {
          "indexed": true,
          "internalType": "address",
          "name": "from",
          "type": "address"
        },
        {
          "indexed": true,
          "internalType": "address",
          "name": "to",
          "type": "address"
        },
        {
          "indexed": true,
          "internalType": "uint256",
          "name": "tokenId",
          "type": "uint256"
        }
      ],
      "name": "Transfer",
      "type": "event"
    },
    {
      "anonymous": false,
      "inputs": [
        {
          "indexed": false,
          "internalType": "address",
          "name": "account",
          "type": "address"
        }
      ],
      "name": "Unpaused",
      "type": "event"
    },
    {
      "anonymous": false,
      "inputs": [
        {
          "indexed": true,
          "internalType": "uint256",
          "name": "tokenId",
          "type": "uint256"
        }
      ],
      "name": "Unwrapped",
      "type": "event"
    },
    {
      "anonymous": false,
      "inputs": [
        {
          "indexed": true,
          "internalType": "uint256",
          "name": "tokenId",
          "type": "uint256"
        }
      ],
      "name": "Wrapped",
      "type": "event"
    },
    {
      "stateMutability": "payable",
      "type": "fallback"
    },
    {
      "inputs": [
        {
          "internalType": "address",
          "name": "to",
          "type": "address"
        },
        {
          "internalType": "uint256",
          "name": "tokenId",
          "type": "uint256"
        }
      ],
      "name": "approve",
      "outputs": [],
      "stateMutability": "nonpayable",
      "type": "function"
    },
    {
      "inputs": [
        {
          "internalType": "address",
          "name": "owner",
          "type": "address"
        }
      ],
      "name": "balanceOf",
      "outputs": [
        {
          "internalType": "uint256",
          "name": "",
          "type": "uint256"
        }
      ],
      "stateMutability": "view",
      "type": "function"
    },
    {
      "inputs": [
        {
          "internalType": "uint256",
          "name": "tokenId",
          "type": "uint256"
        }
      ],
      "name": "burn",
      "outputs": [],
      "stateMutability": "nonpayable",
      "type": "function"
    },
    {
      "inputs": [],
      "name": "dirtBirds",
      "outputs": [
        {
          "internalType": "contract IERC721",
          "name": "",
          "type": "address"
        }
      ],
      "stateMutability": "view",
      "type": "function"
    },
    {
      "inputs": [
        {
          "internalType": "uint256",
          "name": "tokenId_",
          "type": "uint256"
        }
      ],
      "name": "emergencyMintWrapped",
      "outputs": [],
      "stateMutability": "nonpayable",
      "type": "function"
    },
    {
      "inputs": [
        {
          "internalType": "uint256",
          "name": "tokenId",
          "type": "uint256"
        }
      ],
      "name": "getApproved",
      "outputs": [
        {
          "internalType": "address",
          "name": "",
          "type": "address"
        }
      ],
      "stateMutability": "view",
      "type": "function"
    },
    {
      "inputs": [
        {
          "internalType": "address",
          "name": "owner",
          "type": "address"
        },
        {
          "internalType": "address",
          "name": "operator",
          "type": "address"
        }
      ],
      "name": "isApprovedForAll",
      "outputs": [
        {
          "internalType": "bool",
          "name": "",
          "type": "bool"
        }
      ],
      "stateMutability": "view",
      "type": "function"
    },
    {
      "inputs": [],
      "name": "name",
      "outputs": [
        {
          "internalType": "string",
          "name": "",
          "type": "string"
        }
      ],
      "stateMutability": "view",
      "type": "function"
    },
    {
      "inputs": [
        {
          "internalType": "address",
          "name": "operator_",
          "type": "address"
        },
        {
          "internalType": "address",
          "name": "from_",
          "type": "address"
        },
        {
          "internalType": "uint256",
          "name": "tokenId_",
          "type": "uint256"
        },
        {
          "internalType": "bytes",
          "name": "data_",
          "type": "bytes"
        }
      ],
      "name": "onERC721Received",
      "outputs": [
        {
          "internalType": "bytes4",
          "name": "",
          "type": "bytes4"
        }
      ],
      "stateMutability": "nonpayable",
      "type": "function"
    },
    {
      "inputs": [],
      "name": "owner",
      "outputs": [
        {
          "internalType": "address",
          "name": "",
          "type": "address"
        }
      ],
      "stateMutability": "view",
      "type": "function"
    },
    {
      "inputs": [
        {
          "internalType": "uint256",
          "name": "tokenId",
          "type": "uint256"
        }
      ],
      "name": "ownerOf",
      "outputs": [
        {
          "internalType": "address",
          "name": "",
          "type": "address"
        }
      ],
      "stateMutability": "view",
      "type": "function"
    },
    {
      "inputs": [],
      "name": "pause",
      "outputs": [],
      "stateMutability": "nonpayable",
      "type": "function"
    },
    {
      "inputs": [],
      "name": "paused",
      "outputs": [
        {
          "internalType": "bool",
          "name": "",
          "type": "bool"
        }
      ],
      "stateMutability": "view",
      "type": "function"
    },
    {
      "inputs": [],
      "name": "renounceOwnership",
      "outputs": [],
      "stateMutability": "nonpayable",
      "type": "function"
    },
    {
      "inputs": [
        {
          "internalType": "address",
          "name": "from",
          "type": "address"
        },
        {
          "internalType": "address",
          "name": "to",
          "type": "address"
        },
        {
          "internalType": "uint256",
          "name": "tokenId",
          "type": "uint256"
        }
      ],
      "name": "safeTransferFrom",
      "outputs": [],
      "stateMutability": "nonpayable",
      "type": "function"
    },
    {
      "inputs": [
        {
          "internalType": "address",
          "name": "from",
          "type": "address"
        },
        {
          "internalType": "address",
          "name": "to",
          "type": "address"
        },
        {
          "internalType": "uint256",
          "name": "tokenId",
          "type": "uint256"
        },
        {
          "internalType": "bytes",
          "name": "data",
          "type": "bytes"
        }
      ],
      "name": "safeTransferFrom",
      "outputs": [],
      "stateMutability": "nonpayable",
      "type": "function"
    },
    {
      "inputs": [
        {
          "internalType": "address",
          "name": "operator",
          "type": "address"
        },
        {
          "internalType": "bool",
          "name": "approved",
          "type": "bool"
        }
      ],
      "name": "setApprovalForAll",
      "outputs": [],
      "stateMutability": "nonpayable",
      "type": "function"
    },
    {
      "inputs": [
        {
          "internalType": "bytes4",
          "name": "interfaceId",
          "type": "bytes4"
        }
      ],
      "name": "supportsInterface",
      "outputs": [
        {
          "internalType": "bool",
          "name": "",
          "type": "bool"
        }
      ],
      "stateMutability": "view",
      "type": "function"
    },
    {
      "inputs": [],
      "name": "symbol",
      "outputs": [
        {
          "internalType": "string",
          "name": "",
          "type": "string"
        }
      ],
      "stateMutability": "view",
      "type": "function"
    },
    {
      "inputs": [
        {
          "internalType": "uint256",
          "name": "tokenId",
          "type": "uint256"
        }
      ],
      "name": "tokenURI",
      "outputs": [
        {
          "internalType": "string",
          "name": "",
          "type": "string"
        }
      ],
      "stateMutability": "view",
      "type": "function"
    },
    {
      "inputs": [
        {
          "internalType": "address",
          "name": "from",
          "type": "address"
        },
        {
          "internalType": "address",
          "name": "to",
          "type": "address"
        },
        {
          "internalType": "uint256",
          "name": "tokenId",
          "type": "uint256"
        }
      ],
      "name": "transferFrom",
      "outputs": [],
      "stateMutability": "nonpayable",
      "type": "function"
    },
    {
      "inputs": [
        {
          "internalType": "address",
          "name": "newOwner",
          "type": "address"
        }
      ],
      "name": "transferOwnership",
      "outputs": [],
      "stateMutability": "nonpayable",
      "type": "function"
    },
    {
      "inputs": [],
      "name": "unpause",
      "outputs": [],
      "stateMutability": "nonpayable",
      "type": "function"
    },
    {
      "inputs": [
        {
          "internalType": "uint256[]",
          "name": "tokenIds_",
          "type": "uint256[]"
        }
      ],
      "name": "unwrap",
      "outputs": [],
      "stateMutability": "nonpayable",
      "type": "function"
    },
    {
      "inputs": [
        {
          "internalType": "address",
          "name": "token",
          "type": "address"
        }
      ],
      "name": "withdrawERC20",
      "outputs": [],
      "stateMutability": "nonpayable",
      "type": "function"
    },
    {
      "inputs": [],
      "name": "withdrawETH",
      "outputs": [],
      "stateMutability": "nonpayable",
      "type": "function"
    },
    {
      "inputs": [
        {
          "internalType": "uint256[]",
          "name": "tokenIds_",
          "type": "uint256[]"
        }
      ],
      "name": "wrap",
      "outputs": [],
      "stateMutability": "nonpayable",
      "type": "function"
    },
    {
      "inputs": [
        {
          "internalType": "uint256",
          "name": "tokenId_",
          "type": "uint256"
        }
      ],
      "name": "wrapOne",
      "outputs": [],
      "stateMutability": "nonpayable",
      "type": "function"
    },
    {
      "stateMutability": "payable",
      "type": "receive"
    }
  ],
  "bytecode": "0x60806040523480156200001157600080fd5b506040516200478238038062004782833981810160405281019062000037919062000298565b6040518060400160405280600981526020017f46726565426972647300000000000000000000000000000000000000000000008152506040518060400160405280600281526020017f46420000000000000000000000000000000000000000000000000000000000008152508160009081620000b4919062000544565b508060019081620000c6919062000544565b5050506000600660006101000a81548160ff02191690831515021790555062000104620000f86200014c60201b60201c565b6200015460201b60201c565b80600760006101000a81548173ffffffffffffffffffffffffffffffffffffffff021916908373ffffffffffffffffffffffffffffffffffffffff160217905550506200062b565b600033905090565b6000600660019054906101000a900473ffffffffffffffffffffffffffffffffffffffff16905081600660016101000a81548173ffffffffffffffffffffffffffffffffffffffff021916908373ffffffffffffffffffffffffffffffffffffffff1602179055508173ffffffffffffffffffffffffffffffffffffffff168173ffffffffffffffffffffffffffffffffffffffff167f8be0079c531659141344cd1fd0a4f28419497f9722a3daafe3b4186f6b6457e060405160405180910390a35050565b600080fd5b600073ffffffffffffffffffffffffffffffffffffffff82169050919050565b60006200024c826200021f565b9050919050565b600062000260826200023f565b9050919050565b620002728162000253565b81146200027e57600080fd5b50565b600081519050620002928162000267565b92915050565b600060208284031215620002b157620002b06200021a565b5b6000620002c18482850162000281565b91505092915050565b600081519050919050565b7f4e487b7100000000000000000000000000000000000000000000000000000000600052604160045260246000fd5b7f4e487b7100000000000000000000000000000000000000000000000000000000600052602260045260246000fd5b600060028204905060018216806200034c57607f821691505b60208210810362000362576200036162000304565b5b50919050565b60008190508160005260206000209050919050565b60006020601f8301049050919050565b600082821b905092915050565b600060088302620003cc7fffffffffffffffffffffffffffffffffffffffffffffffffffffffffffffffff826200038d565b620003d886836200038d565b95508019841693508086168417925050509392505050565b6000819050919050565b6000819050919050565b6000620004256200041f6200041984620003f0565b620003fa565b620003f0565b9050919050565b6000819050919050565b620004418362000404565b6200045962000450826200042c565b8484546200039a565b825550505050565b600090565b6200047062000461565b6200047d81848462000436565b505050565b5b81811015620004a5576200049960008262000466565b60018101905062000483565b5050565b601f821115620004f457620004be8162000368565b620004c9846200037d565b81016020851015620004d9578190505b620004f1620004e8856200037d565b83018262000482565b50505b505050565b600082821c905092915050565b60006200051960001984600802620004f9565b1980831691505092915050565b600062000534838362000506565b9150826002028217905092915050565b6200054f82620002ca565b67ffffffffffffffff8111156200056b576200056a620002d5565b5b62000577825462000333565b62000584828285620004a9565b600060209050601f831160018114620005bc5760008415620005a7578287015190505b620005b3858262000526565b86555062000623565b601f198416620005cc8662000368565b60005b82811015620005f657848901518255600182019150602085019450602081019050620005cf565b8683101562000616578489015162000612601f89168262000506565b8355505b6001600288020188555050505b505050505050565b614147806200063b6000396000f3fe6080604052600436106101bb5760003560e01c806363ac2a4c116100ec578063b88d4fde1161008a578063e086e5ec11610064578063e086e5ec146105e8578063e985e9c5146105ff578063f2fde38b1461063c578063f4f3b20014610665576101c2565b8063b88d4fde14610559578063c87b56dd14610582578063cc17a5bf146105bf576101c2565b80638456cb59116100c65780638456cb59146104c35780638da5cb5b146104da57806395d89b4114610505578063a22cb46514610530576101c2565b806363ac2a4c1461044657806370a082311461046f578063715018a6146104ac576101c2565b80633f44f32c1161015957806342966c681161013357806342966c681461038a578063435500ae146103b35780635c975abb146103de5780636352211e14610409576101c2565b80633f44f32c146103215780633f4ba83a1461034a57806342842e0e14610361576101c2565b8063095ea7b311610195578063095ea7b3146102695780631327144514610292578063150b7a02146102bb57806323b872dd146102f8576101c2565b806301ffc9a7146101c457806306fdde0314610201578063081812fc1461022c576101c2565b366101c257005b005b3480156101d057600080fd5b506101eb60048036038101906101e69190612962565b61068e565b6040516101f891906129aa565b60405180910390f35b34801561020d57600080fd5b50610216610770565b6040516102239190612a55565b60405180910390f35b34801561023857600080fd5b50610253600480360381019061024e9190612aad565b610802565b6040516102609190612b1b565b60405180910390f35b34801561027557600080fd5b50610290600480360381019061028b9190612b62565b610848565b005b34801561029e57600080fd5b506102b960048036038101906102b49190612aad565b61095f565b005b3480156102c757600080fd5b506102e260048036038101906102dd9190612cd7565b610a28565b6040516102ef9190612d69565b60405180910390f35b34801561030457600080fd5b5061031f600480360381019061031a9190612d84565b610bcd565b005b34801561032d57600080fd5b5061034860048036038101906103439190612aad565b610c2d565b005b34801561035657600080fd5b5061035f610e73565b005b34801561036d57600080fd5b5061038860048036038101906103839190612d84565b610e85565b005b34801561039657600080fd5b506103b160048036038101906103ac9190612aad565b610ea5565b005b3480156103bf57600080fd5b506103c8610f01565b6040516103d59190612e36565b60405180910390f35b3480156103ea57600080fd5b506103f3610f27565b60405161040091906129aa565b60405180910390f35b34801561041557600080fd5b50610430600480360381019061042b9190612aad565b610f3e565b60405161043d9190612b1b565b60405180910390f35b34801561045257600080fd5b5061046d60048036038101906104689190612eb1565b610fef565b005b34801561047b57600080fd5b5061049660048036038101906104919190612efe565b611049565b6040516104a39190612f3a565b60405180910390f35b3480156104b857600080fd5b506104c1611100565b005b3480156104cf57600080fd5b506104d8611114565b005b3480156104e657600080fd5b506104ef611126565b6040516104fc9190612b1b565b60405180910390f35b34801561051157600080fd5b5061051a611150565b6040516105279190612a55565b60405180910390f35b34801561053c57600080fd5b5061055760048036038101906105529190612f81565b6111e2565b005b34801561056557600080fd5b50610580600480360381019061057b9190612cd7565b6111f8565b005b34801561058e57600080fd5b506105a960048036038101906105a49190612aad565b61125a565b6040516105b69190612a55565b60405180910390f35b3480156105cb57600080fd5b506105e660048036038101906105e19190612eb1565b61128b565b005b3480156105f457600080fd5b506105fd6113c5565b005b34801561060b57600080fd5b5061062660048036038101906106219190612fc1565b611483565b60405161063391906129aa565b60405180910390f35b34801561064857600080fd5b50610663600480360381019061065e9190612efe565b611517565b005b34801561067157600080fd5b5061068c60048036038101906106879190612efe565b61159a565b005b60007f80ac58cd000000000000000000000000000000000000000000000000000000007bffffffffffffffffffffffffffffffffffffffffffffffffffffffff1916827bffffffffffffffffffffffffffffffffffffffffffffffffffffffff1916148061075957507f5b5e139f000000000000000000000000000000000000000000000000000000007bffffffffffffffffffffffffffffffffffffffffffffffffffffffff1916827bffffffffffffffffffffffffffffffffffffffffffffffffffffffff1916145b806107695750610768826116e8565b5b9050919050565b60606000805461077f90613030565b80601f01602080910402602001604051908101604052809291908181526020018280546107ab90613030565b80156107f85780601f106107cd576101008083540402835291602001916107f8565b820191906000526020600020905b8154815290600101906020018083116107db57829003601f168201915b5050505050905090565b600061080d82611752565b6004600083815260200190815260200160002060009054906101000a900473ffffffffffffffffffffffffffffffffffffffff169050919050565b600061085382610f3e565b90508073ffffffffffffffffffffffffffffffffffffffff168373ffffffffffffffffffffffffffffffffffffffff16036108c3576040517f08c379a00000000000000000000000000000000000000000000000000000000081526004016108ba906130d3565b60405180910390fd5b8073ffffffffffffffffffffffffffffffffffffffff166108e261179d565b73ffffffffffffffffffffffffffffffffffffffff16148061091157506109108161090b61179d565b611483565b5b610950576040517f08c379a000000000000000000000000000000000000000000000000000000000815260040161094790613165565b60405180910390fd5b61095a83836117a5565b505050565b7fc1f432184cc790d4f6c377d85d77d7dcabf3f2bc89888cb2813fa72ef7e9255a60405161098c906131d1565b60405180910390a1600760009054906101000a900473ffffffffffffffffffffffffffffffffffffffff1673ffffffffffffffffffffffffffffffffffffffff166342842e0e3330846040518463ffffffff1660e01b81526004016109f3939291906131f1565b600060405180830381600087803b158015610a0d57600080fd5b505af1158015610a21573d6000803e3d6000fd5b5050505050565b60007fc1f432184cc790d4f6c377d85d77d7dcabf3f2bc89888cb2813fa72ef7e9255a604051610a5790613274565b60405180910390a1600760009054906101000a900473ffffffffffffffffffffffffffffffffffffffff1673ffffffffffffffffffffffffffffffffffffffff163373ffffffffffffffffffffffffffffffffffffffff161480610ae657503073ffffffffffffffffffffffffffffffffffffffff163373ffffffffffffffffffffffffffffffffffffffff16145b610b25576040517f08c379a0000000000000000000000000000000000000000000000000000000008152600401610b1c906132e0565b60405180910390fd5b7fc1f432184cc790d4f6c377d85d77d7dcabf3f2bc89888cb2813fa72ef7e9255a604051610b529061334c565b60405180910390a16000600760009054906101000a900473ffffffffffffffffffffffffffffffffffffffff1673ffffffffffffffffffffffffffffffffffffffff163373ffffffffffffffffffffffffffffffffffffffff16149050610bba85828661185e565b63150b7a0260e01b915050949350505050565b610bde610bd861179d565b82611a07565b610c1d576040517f08c379a0000000000000000000000000000000000000000000000000000000008152600401610c14906133de565b60405180910390fd5b610c28838383611a9c565b505050565b610c35611d02565b3073ffffffffffffffffffffffffffffffffffffffff16600760009054906101000a900473ffffffffffffffffffffffffffffffffffffffff1673ffffffffffffffffffffffffffffffffffffffff16636352211e836040518263ffffffff1660e01b8152600401610ca79190612f3a565b602060405180830381865afa158015610cc4573d6000803e3d6000fd5b505050506040513d601f19601f82011682018060405250810190610ce89190613413565b73ffffffffffffffffffffffffffffffffffffffff1603610e3557610d0c81611d80565b8015610d4b57503073ffffffffffffffffffffffffffffffffffffffff16610d3382610f3e565b73ffffffffffffffffffffffffffffffffffffffff16145b15610da457610d7230610d5c611126565b8360405180602001604052806000815250611dec565b807f5b8cd8f3a67af1dee11ad4321a05f79a76cc7ea517810fc56d6d96c1e60d368660405160405180910390a2610e30565b610dad81611d80565b610df457610dc2610dbc611126565b82611e48565b807f5b8cd8f3a67af1dee11ad4321a05f79a76cc7ea517810fc56d6d96c1e60d368660405160405180910390a2610e2f565b6040517f08c379a0000000000000000000000000000000000000000000000000000000008152600401610e26906134b2565b60405180910390fd5b5b610e70565b6040517f08c379a0000000000000000000000000000000000000000000000000000000008152600401610e6790613544565b60405180910390fd5b50565b610e7b611d02565b610e83611e66565b565b610ea0838383604051806020016040528060008152506111f8565b505050565b610eb6610eb061179d565b82611a07565b610ef5576040517f08c379a0000000000000000000000000000000000000000000000000000000008152600401610eec906133de565b60405180910390fd5b610efe81611ec9565b50565b600760009054906101000a900473ffffffffffffffffffffffffffffffffffffffff1681565b6000600660009054906101000a900460ff16905090565b6000806002600084815260200190815260200160002060009054906101000a900473ffffffffffffffffffffffffffffffffffffffff169050600073ffffffffffffffffffffffffffffffffffffffff168173ffffffffffffffffffffffffffffffffffffffff1603610fe6576040517f08c379a0000000000000000000000000000000000000000000000000000000008152600401610fdd906135b0565b60405180910390fd5b80915050919050565b60005b82829050811015611044576110313330858585818110611015576110146135d0565b5b9050602002013560405180602001604052806000815250611dec565b808061103c9061362e565b915050610ff2565b505050565b60008073ffffffffffffffffffffffffffffffffffffffff168273ffffffffffffffffffffffffffffffffffffffff16036110b9576040517f08c379a00000000000000000000000000000000000000000000000000000000081526004016110b0906136e8565b60405180910390fd5b600360008373ffffffffffffffffffffffffffffffffffffffff1673ffffffffffffffffffffffffffffffffffffffff168152602001908152602001600020549050919050565b611108611d02565b6111126000611fe6565b565b61111c611d02565b6111246120ac565b565b6000600660019054906101000a900473ffffffffffffffffffffffffffffffffffffffff16905090565b60606001805461115f90613030565b80601f016020809104026020016040519081016040528092919081815260200182805461118b90613030565b80156111d85780601f106111ad576101008083540402835291602001916111d8565b820191906000526020600020905b8154815290600101906020018083116111bb57829003601f168201915b5050505050905090565b6111f46111ed61179d565b838361210f565b5050565b61120961120361179d565b83611a07565b611248576040517f08c379a000000000000000000000000000000000000000000000000000000000815260040161123f906133de565b60405180910390fd5b61125484848484611dec565b50505050565b60606112658261227b565b6040516020016112759190613744565b6040516020818303038152906040529050919050565b7fc1f432184cc790d4f6c377d85d77d7dcabf3f2bc89888cb2813fa72ef7e9255a6040516112b8906137a7565b60405180910390a160005b828290508110156113c0577fc1f432184cc790d4f6c377d85d77d7dcabf3f2bc89888cb2813fa72ef7e9255a6040516112fb906131d1565b60405180910390a1600760009054906101000a900473ffffffffffffffffffffffffffffffffffffffff1673ffffffffffffffffffffffffffffffffffffffff166342842e0e3330868686818110611356576113556135d0565b5b905060200201356040518463ffffffff1660e01b815260040161137b939291906131f1565b600060405180830381600087803b15801561139557600080fd5b505af11580156113a9573d6000803e3d6000fd5b5050505080806113b89061362e565b9150506112c3565b505050565b6113cd611d02565b60006113d7611126565b73ffffffffffffffffffffffffffffffffffffffff16476040516113fa906137f8565b60006040518083038185875af1925050503d8060008114611437576040519150601f19603f3d011682016040523d82523d6000602084013e61143c565b606091505b5050905080611480576040517f08c379a000000000000000000000000000000000000000000000000000000000815260040161147790613859565b60405180910390fd5b50565b6000600560008473ffffffffffffffffffffffffffffffffffffffff1673ffffffffffffffffffffffffffffffffffffffff16815260200190815260200160002060008373ffffffffffffffffffffffffffffffffffffffff1673ffffffffffffffffffffffffffffffffffffffff16815260200190815260200160002060009054906101000a900460ff16905092915050565b61151f611d02565b600073ffffffffffffffffffffffffffffffffffffffff168173ffffffffffffffffffffffffffffffffffffffff160361158e576040517f08c379a0000000000000000000000000000000000000000000000000000000008152600401611585906138eb565b60405180910390fd5b61159781611fe6565b50565b6115a2611d02565b60008173ffffffffffffffffffffffffffffffffffffffff1663a9059cbb6115c8611126565b8473ffffffffffffffffffffffffffffffffffffffff166370a08231306040518263ffffffff1660e01b81526004016116019190612b1b565b602060405180830381865afa15801561161e573d6000803e3d6000fd5b505050506040513d601f19601f820116820180604052508101906116429190613920565b6040518363ffffffff1660e01b815260040161165f92919061394d565b6020604051808303816000875af115801561167e573d6000803e3d6000fd5b505050506040513d601f19601f820116820180604052508101906116a2919061398b565b9050806116e4576040517f08c379a00000000000000000000000000000000000000000000000000000000081526004016116db90613a04565b60405180910390fd5b5050565b60007f01ffc9a7000000000000000000000000000000000000000000000000000000007bffffffffffffffffffffffffffffffffffffffffffffffffffffffff1916827bffffffffffffffffffffffffffffffffffffffffffffffffffffffff1916149050919050565b61175b81611d80565b61179a576040517f08c379a0000000000000000000000000000000000000000000000000000000008152600401611791906135b0565b60405180910390fd5b50565b600033905090565b816004600083815260200190815260200160002060006101000a81548173ffffffffffffffffffffffffffffffffffffffff021916908373ffffffffffffffffffffffffffffffffffffffff160217905550808273ffffffffffffffffffffffffffffffffffffffff1661181883610f3e565b73ffffffffffffffffffffffffffffffffffffffff167f8c5be1e5ebec7d5bd14f71427d1e84f3dd0314c0f7b2291e5b200ac8c7c3b92560405160405180910390a45050565b7fc1f432184cc790d4f6c377d85d77d7dcabf3f2bc89888cb2813fa72ef7e9255a60405161188b90613a70565b60405180910390a18115611943576118a281611d80565b80156118e157503073ffffffffffffffffffffffffffffffffffffffff166118c982610f3e565b73ffffffffffffffffffffffffffffffffffffffff16145b156119065761190130848360405180602001604052806000815250611dec565b611911565b6119108382611e48565b5b807f5b8cd8f3a67af1dee11ad4321a05f79a76cc7ea517810fc56d6d96c1e60d368660405160405180910390a2611a02565b600760009054906101000a900473ffffffffffffffffffffffffffffffffffffffff1673ffffffffffffffffffffffffffffffffffffffff166342842e0e3085846040518463ffffffff1660e01b81526004016119a2939291906131f1565b600060405180830381600087803b1580156119bc57600080fd5b505af11580156119d0573d6000803e3d6000fd5b50505050807fbeaa92c6354c6dcf375d2c514352b2c11bc865784722e5dd9b267e606eb5fc5f60405160405180910390a25b505050565b600080611a1383610f3e565b90508073ffffffffffffffffffffffffffffffffffffffff168473ffffffffffffffffffffffffffffffffffffffff161480611a555750611a548185611483565b5b80611a9357508373ffffffffffffffffffffffffffffffffffffffff16611a7b84610802565b73ffffffffffffffffffffffffffffffffffffffff16145b91505092915050565b8273ffffffffffffffffffffffffffffffffffffffff16611abc82610f3e565b73ffffffffffffffffffffffffffffffffffffffff1614611b12576040517f08c379a0000000000000000000000000000000000000000000000000000000008152600401611b0990613b02565b60405180910390fd5b600073ffffffffffffffffffffffffffffffffffffffff168273ffffffffffffffffffffffffffffffffffffffff1603611b81576040517f08c379a0000000000000000000000000000000000000000000000000000000008152600401611b7890613b94565b60405180910390fd5b611b8c8383836122e3565b611b976000826117a5565b6001600360008573ffffffffffffffffffffffffffffffffffffffff1673ffffffffffffffffffffffffffffffffffffffff1681526020019081526020016000206000828254611be79190613bb4565b925050819055506001600360008473ffffffffffffffffffffffffffffffffffffffff1673ffffffffffffffffffffffffffffffffffffffff1681526020019081526020016000206000828254611c3e9190613be8565b92505081905550816002600083815260200190815260200160002060006101000a81548173ffffffffffffffffffffffffffffffffffffffff021916908373ffffffffffffffffffffffffffffffffffffffff160217905550808273ffffffffffffffffffffffffffffffffffffffff168473ffffffffffffffffffffffffffffffffffffffff167fddf252ad1be2c89b69c2b068fc378daa952ba7f163c4a11628f55a4df523b3ef60405160405180910390a4611cfd8383836122fb565b505050565b611d0a61179d565b73ffffffffffffffffffffffffffffffffffffffff16611d28611126565b73ffffffffffffffffffffffffffffffffffffffff1614611d7e576040517f08c379a0000000000000000000000000000000000000000000000000000000008152600401611d7590613c68565b60405180910390fd5b565b60008073ffffffffffffffffffffffffffffffffffffffff166002600084815260200190815260200160002060009054906101000a900473ffffffffffffffffffffffffffffffffffffffff1673ffffffffffffffffffffffffffffffffffffffff1614159050919050565b611df7848484611a9c565b611e0384848484612300565b611e42576040517f08c379a0000000000000000000000000000000000000000000000000000000008152600401611e3990613cfa565b60405180910390fd5b50505050565b611e62828260405180602001604052806000815250612487565b5050565b611e6e6124e2565b6000600660006101000a81548160ff0219169083151502179055507f5db9ee0a495bf2e6ff9c91a7834c1ba4fdd244a5e8aa4e537bd38aeae4b073aa611eb261179d565b604051611ebf9190612b1b565b60405180910390a1565b6000611ed482610f3e565b9050611ee2816000846122e3565b611eed6000836117a5565b6001600360008373ffffffffffffffffffffffffffffffffffffffff1673ffffffffffffffffffffffffffffffffffffffff1681526020019081526020016000206000828254611f3d9190613bb4565b925050819055506002600083815260200190815260200160002060006101000a81549073ffffffffffffffffffffffffffffffffffffffff021916905581600073ffffffffffffffffffffffffffffffffffffffff168273ffffffffffffffffffffffffffffffffffffffff167fddf252ad1be2c89b69c2b068fc378daa952ba7f163c4a11628f55a4df523b3ef60405160405180910390a4611fe2816000846122fb565b5050565b6000600660019054906101000a900473ffffffffffffffffffffffffffffffffffffffff16905081600660016101000a81548173ffffffffffffffffffffffffffffffffffffffff021916908373ffffffffffffffffffffffffffffffffffffffff1602179055508173ffffffffffffffffffffffffffffffffffffffff168173ffffffffffffffffffffffffffffffffffffffff167f8be0079c531659141344cd1fd0a4f28419497f9722a3daafe3b4186f6b6457e060405160405180910390a35050565b6120b461252b565b6001600660006101000a81548160ff0219169083151502179055507f62e78cea01bee320cd4e420270b5ea74000d11b0c9f74754ebdbfc544b05a2586120f861179d565b6040516121059190612b1b565b60405180910390a1565b8173ffffffffffffffffffffffffffffffffffffffff168373ffffffffffffffffffffffffffffffffffffffff160361217d576040517f08c379a000000000000000000000000000000000000000000000000000000000815260040161217490613d66565b60405180910390fd5b80600560008573ffffffffffffffffffffffffffffffffffffffff1673ffffffffffffffffffffffffffffffffffffffff16815260200190815260200160002060008473ffffffffffffffffffffffffffffffffffffffff1673ffffffffffffffffffffffffffffffffffffffff16815260200190815260200160002060006101000a81548160ff0219169083151502179055508173ffffffffffffffffffffffffffffffffffffffff168373ffffffffffffffffffffffffffffffffffffffff167f17307eab39ab6107e8899845ad3d59bd9653f200f220920489ca2b5937696c318360405161226e91906129aa565b60405180910390a3505050565b606061228682611752565b6000612290612575565b905060008151116122b057604051806020016040528060008152506122db565b806122ba84612595565b6040516020016122cb929190613d86565b6040516020818303038152906040525b915050919050565b6122eb61252b565b6122f68383836126f5565b505050565b505050565b60006123218473ffffffffffffffffffffffffffffffffffffffff166126fa565b1561247a578373ffffffffffffffffffffffffffffffffffffffff1663150b7a0261234a61179d565b8786866040518563ffffffff1660e01b815260040161236c9493929190613dff565b6020604051808303816000875af19250505080156123a857506040513d601f19601f820116820180604052508101906123a59190613e60565b60015b61242a573d80600081146123d8576040519150601f19603f3d011682016040523d82523d6000602084013e6123dd565b606091505b506000815103612422576040517f08c379a000000000000000000000000000000000000000000000000000000000815260040161241990613cfa565b60405180910390fd5b805181602001fd5b63150b7a0260e01b7bffffffffffffffffffffffffffffffffffffffffffffffffffffffff1916817bffffffffffffffffffffffffffffffffffffffffffffffffffffffff19161491505061247f565b600190505b949350505050565b612491838361271d565b61249e6000848484612300565b6124dd576040517f08c379a00000000000000000000000000000000000000000000000000000000081526004016124d490613cfa565b60405180910390fd5b505050565b6124ea610f27565b612529576040517f08c379a000000000000000000000000000000000000000000000000000000000815260040161252090613ed9565b60405180910390fd5b565b612533610f27565b15612573576040517f08c379a000000000000000000000000000000000000000000000000000000000815260040161256a90613f45565b60405180910390fd5b565b60606040518060800160405280604381526020016140cf60439139905090565b6060600082036125dc576040518060400160405280600181526020017f300000000000000000000000000000000000000000000000000000000000000081525090506126f0565b600082905060005b6000821461260e5780806125f79061362e565b915050600a826126079190613f94565b91506125e4565b60008167ffffffffffffffff81111561262a57612629612bac565b5b6040519080825280601f01601f19166020018201604052801561265c5781602001600182028036833780820191505090505b5090505b600085146126e9576001826126759190613bb4565b9150600a856126849190613fc5565b60306126909190613be8565b60f81b8183815181106126a6576126a56135d0565b5b60200101907effffffffffffffffffffffffffffffffffffffffffffffffffffffffffffff1916908160001a905350600a856126e29190613f94565b9450612660565b8093505050505b919050565b505050565b6000808273ffffffffffffffffffffffffffffffffffffffff163b119050919050565b600073ffffffffffffffffffffffffffffffffffffffff168273ffffffffffffffffffffffffffffffffffffffff160361278c576040517f08c379a000000000000000000000000000000000000000000000000000000000815260040161278390614042565b60405180910390fd5b61279581611d80565b156127d5576040517f08c379a00000000000000000000000000000000000000000000000000000000081526004016127cc906140ae565b60405180910390fd5b6127e1600083836122e3565b6001600360008473ffffffffffffffffffffffffffffffffffffffff1673ffffffffffffffffffffffffffffffffffffffff16815260200190815260200160002060008282546128319190613be8565b92505081905550816002600083815260200190815260200160002060006101000a81548173ffffffffffffffffffffffffffffffffffffffff021916908373ffffffffffffffffffffffffffffffffffffffff160217905550808273ffffffffffffffffffffffffffffffffffffffff16600073ffffffffffffffffffffffffffffffffffffffff167fddf252ad1be2c89b69c2b068fc378daa952ba7f163c4a11628f55a4df523b3ef60405160405180910390a46128f2600083836122fb565b5050565b6000604051905090565b600080fd5b600080fd5b60007fffffffff0000000000000000000000000000000000000000000000000000000082169050919050565b61293f8161290a565b811461294a57600080fd5b50565b60008135905061295c81612936565b92915050565b60006020828403121561297857612977612900565b5b60006129868482850161294d565b91505092915050565b60008115159050919050565b6129a48161298f565b82525050565b60006020820190506129bf600083018461299b565b92915050565b600081519050919050565b600082825260208201905092915050565b60005b838110156129ff5780820151818401526020810190506129e4565b60008484015250505050565b6000601f19601f8301169050919050565b6000612a27826129c5565b612a3181856129d0565b9350612a418185602086016129e1565b612a4a81612a0b565b840191505092915050565b60006020820190508181036000830152612a6f8184612a1c565b905092915050565b6000819050919050565b612a8a81612a77565b8114612a9557600080fd5b50565b600081359050612aa781612a81565b92915050565b600060208284031215612ac357612ac2612900565b5b6000612ad184828501612a98565b91505092915050565b600073ffffffffffffffffffffffffffffffffffffffff82169050919050565b6000612b0582612ada565b9050919050565b612b1581612afa565b82525050565b6000602082019050612b306000830184612b0c565b92915050565b612b3f81612afa565b8114612b4a57600080fd5b50565b600081359050612b5c81612b36565b92915050565b60008060408385031215612b7957612b78612900565b5b6000612b8785828601612b4d565b9250506020612b9885828601612a98565b9150509250929050565b600080fd5b600080fd5b7f4e487b7100000000000000000000000000000000000000000000000000000000600052604160045260246000fd5b612be482612a0b565b810181811067ffffffffffffffff82111715612c0357612c02612bac565b5b80604052505050565b6000612c166128f6565b9050612c228282612bdb565b919050565b600067ffffffffffffffff821115612c4257612c41612bac565b5b612c4b82612a0b565b9050602081019050919050565b82818337600083830152505050565b6000612c7a612c7584612c27565b612c0c565b905082815260208101848484011115612c9657612c95612ba7565b5b612ca1848285612c58565b509392505050565b600082601f830112612cbe57612cbd612ba2565b5b8135612cce848260208601612c67565b91505092915050565b60008060008060808587031215612cf157612cf0612900565b5b6000612cff87828801612b4d565b9450506020612d1087828801612b4d565b9350506040612d2187828801612a98565b925050606085013567ffffffffffffffff811115612d4257612d41612905565b5b612d4e87828801612ca9565b91505092959194509250565b612d638161290a565b82525050565b6000602082019050612d7e6000830184612d5a565b92915050565b600080600060608486031215612d9d57612d9c612900565b5b6000612dab86828701612b4d565b9350506020612dbc86828701612b4d565b9250506040612dcd86828701612a98565b9150509250925092565b6000819050919050565b6000612dfc612df7612df284612ada565b612dd7565b612ada565b9050919050565b6000612e0e82612de1565b9050919050565b6000612e2082612e03565b9050919050565b612e3081612e15565b82525050565b6000602082019050612e4b6000830184612e27565b92915050565b600080fd5b600080fd5b60008083601f840112612e7157612e70612ba2565b5b8235905067ffffffffffffffff811115612e8e57612e8d612e51565b5b602083019150836020820283011115612eaa57612ea9612e56565b5b9250929050565b60008060208385031215612ec857612ec7612900565b5b600083013567ffffffffffffffff811115612ee657612ee5612905565b5b612ef285828601612e5b565b92509250509250929050565b600060208284031215612f1457612f13612900565b5b6000612f2284828501612b4d565b91505092915050565b612f3481612a77565b82525050565b6000602082019050612f4f6000830184612f2b565b92915050565b612f5e8161298f565b8114612f6957600080fd5b50565b600081359050612f7b81612f55565b92915050565b60008060408385031215612f9857612f97612900565b5b6000612fa685828601612b4d565b9250506020612fb785828601612f6c565b9150509250929050565b60008060408385031215612fd857612fd7612900565b5b6000612fe685828601612b4d565b9250506020612ff785828601612b4d565b9150509250929050565b7f4e487b7100000000000000000000000000000000000000000000000000000000600052602260045260246000fd5b6000600282049050600182168061304857607f821691505b60208210810361305b5761305a613001565b5b50919050565b7f4552433732313a20617070726f76616c20746f2063757272656e74206f776e6560008201527f7200000000000000000000000000000000000000000000000000000000000000602082015250565b60006130bd6021836129d0565b91506130c882613061565b604082019050919050565b600060208201905081810360008301526130ec816130b0565b9050919050565b7f4552433732313a20617070726f76652063616c6c6572206973206e6f7420746f60008201527f6b656e206f776e6572206e6f7220617070726f76656420666f7220616c6c0000602082015250565b600061314f603e836129d0565b915061315a826130f3565b604082019050919050565b6000602082019050818103600083015261317e81613142565b9050919050565b7f537461727420746f6b656e000000000000000000000000000000000000000000600082015250565b60006131bb600b836129d0565b91506131c682613185565b602082019050919050565b600060208201905081810360008301526131ea816131ae565b9050919050565b60006060820190506132066000830186612b0c565b6132136020830185612b0c565b6132206040830184612f2b565b949350505050565b7f6f6e455243373231526563656976656420737461727400000000000000000000600082015250565b600061325e6016836129d0565b915061326982613228565b602082019050919050565b6000602082019050818103600083015261328d81613251565b9050919050565b7f6d75737420626520446972742042697264206f72204672656520426972640000600082015250565b60006132ca601e836129d0565b91506132d582613294565b602082019050919050565b600060208201905081810360008301526132f9816132bd565b9050919050565b7f6f6e455243373231526563656976656420746f6b656e00000000000000000000600082015250565b60006133366016836129d0565b915061334182613300565b602082019050919050565b6000602082019050818103600083015261336581613329565b9050919050565b7f4552433732313a2063616c6c6572206973206e6f7420746f6b656e206f776e6560008201527f72206e6f7220617070726f766564000000000000000000000000000000000000602082015250565b60006133c8602e836129d0565b91506133d38261336c565b604082019050919050565b600060208201905081810360008301526133f7816133bb565b9050919050565b60008151905061340d81612b36565b92915050565b60006020828403121561342957613428612900565b5b6000613437848285016133fe565b91505092915050565b7f467265652042697264206d696e74656420616e6420646973747269627574656460008201527f20616c7265616479000000000000000000000000000000000000000000000000602082015250565b600061349c6028836129d0565b91506134a782613440565b604082019050919050565b600060208201905081810360008301526134cb8161348f565b9050919050565b7f446972742042697264206973206e6f74206c6f636b656420696e20636f6e747260008201527f6163740000000000000000000000000000000000000000000000000000000000602082015250565b600061352e6023836129d0565b9150613539826134d2565b604082019050919050565b6000602082019050818103600083015261355d81613521565b9050919050565b7f4552433732313a20696e76616c696420746f6b656e2049440000000000000000600082015250565b600061359a6018836129d0565b91506135a582613564565b602082019050919050565b600060208201905081810360008301526135c98161358d565b9050919050565b7f4e487b7100000000000000000000000000000000000000000000000000000000600052603260045260246000fd5b7f4e487b7100000000000000000000000000000000000000000000000000000000600052601160045260246000fd5b600061363982612a77565b91507fffffffffffffffffffffffffffffffffffffffffffffffffffffffffffffffff820361366b5761366a6135ff565b5b600182019050919050565b7f4552433732313a2061646472657373207a65726f206973206e6f74206120766160008201527f6c6964206f776e65720000000000000000000000000000000000000000000000602082015250565b60006136d26029836129d0565b91506136dd82613676565b604082019050919050565b60006020820190508181036000830152613701816136c5565b9050919050565b600081905092915050565b600061371e826129c5565b6137288185613708565b93506137388185602086016129e1565b80840191505092915050565b60006137508284613713565b915081905092915050565b7f53746172743a2000000000000000000000000000000000000000000000000000600082015250565b60006137916007836129d0565b915061379c8261375b565b602082019050919050565b600060208201905081810360008301526137c081613784565b9050919050565b600081905092915050565b50565b60006137e26000836137c7565b91506137ed826137d2565b600082019050919050565b6000613803826137d5565b9150819050919050565b7f5472616e73666572206661696c65642e00000000000000000000000000000000600082015250565b60006138436010836129d0565b915061384e8261380d565b602082019050919050565b6000602082019050818103600083015261387281613836565b9050919050565b7f4f776e61626c653a206e6577206f776e657220697320746865207a65726f206160008201527f6464726573730000000000000000000000000000000000000000000000000000602082015250565b60006138d56026836129d0565b91506138e082613879565b604082019050919050565b60006020820190508181036000830152613904816138c8565b9050919050565b60008151905061391a81612a81565b92915050565b60006020828403121561393657613935612900565b5b60006139448482850161390b565b91505092915050565b60006040820190506139626000830185612b0c565b61396f6020830184612f2b565b9392505050565b60008151905061398581612f55565b92915050565b6000602082840312156139a1576139a0612900565b5b60006139af84828501613976565b91505092915050565b7f5472616e73666572206661696c65640000000000000000000000000000000000600082015250565b60006139ee600f836129d0565b91506139f9826139b8565b602082019050919050565b60006020820190508181036000830152613a1d816139e1565b9050919050565b7f426567696e205f666c697020746f6b656e000000000000000000000000000000600082015250565b6000613a5a6011836129d0565b9150613a6582613a24565b602082019050919050565b60006020820190508181036000830152613a8981613a4d565b9050919050565b7f4552433732313a207472616e736665722066726f6d20696e636f72726563742060008201527f6f776e6572000000000000000000000000000000000000000000000000000000602082015250565b6000613aec6025836129d0565b9150613af782613a90565b604082019050919050565b60006020820190508181036000830152613b1b81613adf565b9050919050565b7f4552433732313a207472616e7366657220746f20746865207a65726f2061646460008201527f7265737300000000000000000000000000000000000000000000000000000000602082015250565b6000613b7e6024836129d0565b9150613b8982613b22565b604082019050919050565b60006020820190508181036000830152613bad81613b71565b9050919050565b6000613bbf82612a77565b9150613bca83612a77565b9250828203905081811115613be257613be16135ff565b5b92915050565b6000613bf382612a77565b9150613bfe83612a77565b9250828201905080821115613c1657613c156135ff565b5b92915050565b7f4f776e61626c653a2063616c6c6572206973206e6f7420746865206f776e6572600082015250565b6000613c526020836129d0565b9150613c5d82613c1c565b602082019050919050565b60006020820190508181036000830152613c8181613c45565b9050919050565b7f4552433732313a207472616e7366657220746f206e6f6e20455243373231526560008201527f63656976657220696d706c656d656e7465720000000000000000000000000000602082015250565b6000613ce46032836129d0565b9150613cef82613c88565b604082019050919050565b60006020820190508181036000830152613d1381613cd7565b9050919050565b7f4552433732313a20617070726f766520746f2063616c6c657200000000000000600082015250565b6000613d506019836129d0565b9150613d5b82613d1a565b602082019050919050565b60006020820190508181036000830152613d7f81613d43565b9050919050565b6000613d928285613713565b9150613d9e8284613713565b91508190509392505050565b600081519050919050565b600082825260208201905092915050565b6000613dd182613daa565b613ddb8185613db5565b9350613deb8185602086016129e1565b613df481612a0b565b840191505092915050565b6000608082019050613e146000830187612b0c565b613e216020830186612b0c565b613e2e6040830185612f2b565b8181036060830152613e408184613dc6565b905095945050505050565b600081519050613e5a81612936565b92915050565b600060208284031215613e7657613e75612900565b5b6000613e8484828501613e4b565b91505092915050565b7f5061757361626c653a206e6f7420706175736564000000000000000000000000600082015250565b6000613ec36014836129d0565b9150613ece82613e8d565b602082019050919050565b60006020820190508181036000830152613ef281613eb6565b9050919050565b7f5061757361626c653a2070617573656400000000000000000000000000000000600082015250565b6000613f2f6010836129d0565b9150613f3a82613ef9565b602082019050919050565b60006020820190508181036000830152613f5e81613f22565b9050919050565b7f4e487b7100000000000000000000000000000000000000000000000000000000600052601260045260246000fd5b6000613f9f82612a77565b9150613faa83612a77565b925082613fba57613fb9613f65565b5b828204905092915050565b6000613fd082612a77565b9150613fdb83612a77565b925082613feb57613fea613f65565b5b828206905092915050565b7f4552433732313a206d696e7420746f20746865207a65726f2061646472657373600082015250565b600061402c6020836129d0565b915061403782613ff6565b602082019050919050565b6000602082019050818103600083015261405b8161401f565b9050919050565b7f4552433732313a20746f6b656e20616c7265616479206d696e74656400000000600082015250565b6000614098601c836129d0565b91506140a382614062565b602082019050919050565b600060208201905081810360008301526140c78161408b565b905091905056fe697066733a2f2f62616679626569647235663372716c6e6e6968717136727379646c746d7a6e62737a357a63726233347778717233376a7168366b627a75697136792fa26469706673582212207ba55031a4c550762cab62572e9732110ed27fd6da754d972391429e0002a0b364736f6c63430008110033",
  "linkReferences": {},
  "deployedLinkReferences": {}
}