{
  "_format": "hh-sol-artifact-1",
  "contractName": "FreeBirds",
  "sourceName": "contracts/freebirds.sol",
  "abi": [
    {
      "inputs": [
        {
          "internalType": "address",
          "name": "dirtBirdsContractAddress_",
          "type": "address"
        }
      ],
      "stateMutability": "nonpayable",
      "type": "constructor"
    },
    {
      "anonymous": false,
      "inputs": [
        {
          "indexed": true,
          "internalType": "address",
          "name": "owner",
          "type": "address"
        },
        {
          "indexed": true,
          "internalType": "address",
          "name": "approved",
          "type": "address"
        },
        {
          "indexed": true,
          "internalType": "uint256",
          "name": "tokenId",
          "type": "uint256"
        }
      ],
      "name": "Approval",
      "type": "event"
    },
    {
      "anonymous": false,
      "inputs": [
        {
          "indexed": true,
          "internalType": "address",
          "name": "owner",
          "type": "address"
        },
        {
          "indexed": true,
          "internalType": "address",
          "name": "operator",
          "type": "address"
        },
        {
          "indexed": false,
          "internalType": "bool",
          "name": "approved",
          "type": "bool"
        }
      ],
      "name": "ApprovalForAll",
      "type": "event"
    },
    {
      "anonymous": false,
      "inputs": [
        {
          "indexed": true,
          "internalType": "address",
          "name": "previousOwner",
          "type": "address"
        },
        {
          "indexed": true,
          "internalType": "address",
          "name": "newOwner",
          "type": "address"
        }
      ],
      "name": "OwnershipTransferred",
      "type": "event"
    },
    {
      "anonymous": false,
      "inputs": [
        {
          "indexed": false,
          "internalType": "address",
          "name": "account",
          "type": "address"
        }
      ],
      "name": "Paused",
      "type": "event"
    },
    {
      "anonymous": false,
      "inputs": [
        {
          "indexed": true,
          "internalType": "address",
          "name": "from",
          "type": "address"
        },
        {
          "indexed": true,
          "internalType": "address",
          "name": "to",
          "type": "address"
        },
        {
          "indexed": true,
          "internalType": "uint256",
          "name": "tokenId",
          "type": "uint256"
        }
      ],
      "name": "Transfer",
      "type": "event"
    },
    {
      "anonymous": false,
      "inputs": [
        {
          "indexed": false,
          "internalType": "address",
          "name": "account",
          "type": "address"
        }
      ],
      "name": "Unpaused",
      "type": "event"
    },
    {
      "anonymous": false,
      "inputs": [
        {
          "indexed": true,
          "internalType": "uint256",
          "name": "tokenId",
          "type": "uint256"
        }
      ],
      "name": "Unwrapped",
      "type": "event"
    },
    {
      "anonymous": false,
      "inputs": [
        {
          "indexed": true,
          "internalType": "uint256",
          "name": "tokenId",
          "type": "uint256"
        }
      ],
      "name": "Wrapped",
      "type": "event"
    },
    {
      "stateMutability": "payable",
      "type": "fallback"
    },
    {
      "inputs": [
        {
          "internalType": "address",
          "name": "to",
          "type": "address"
        },
        {
          "internalType": "uint256",
          "name": "tokenId",
          "type": "uint256"
        }
      ],
      "name": "approve",
      "outputs": [],
      "stateMutability": "nonpayable",
      "type": "function"
    },
    {
      "inputs": [
        {
          "internalType": "address",
          "name": "owner",
          "type": "address"
        }
      ],
      "name": "balanceOf",
      "outputs": [
        {
          "internalType": "uint256",
          "name": "",
          "type": "uint256"
        }
      ],
      "stateMutability": "view",
      "type": "function"
    },
    {
      "inputs": [
        {
          "internalType": "uint256",
          "name": "tokenId",
          "type": "uint256"
        }
      ],
      "name": "burn",
      "outputs": [],
      "stateMutability": "nonpayable",
      "type": "function"
    },
    {
      "inputs": [
        {
          "internalType": "uint256",
          "name": "tokenId_",
          "type": "uint256"
        }
      ],
      "name": "emergencyMintWrapped",
      "outputs": [],
      "stateMutability": "nonpayable",
      "type": "function"
    },
    {
      "inputs": [
        {
          "internalType": "uint256",
          "name": "tokenId",
          "type": "uint256"
        }
      ],
      "name": "getApproved",
      "outputs": [
        {
          "internalType": "address",
          "name": "",
          "type": "address"
        }
      ],
      "stateMutability": "view",
      "type": "function"
    },
    {
      "inputs": [
        {
          "internalType": "address",
          "name": "owner",
          "type": "address"
        },
        {
          "internalType": "address",
          "name": "operator",
          "type": "address"
        }
      ],
      "name": "isApprovedForAll",
      "outputs": [
        {
          "internalType": "bool",
          "name": "",
          "type": "bool"
        }
      ],
      "stateMutability": "view",
      "type": "function"
    },
    {
      "inputs": [],
      "name": "name",
      "outputs": [
        {
          "internalType": "string",
          "name": "",
          "type": "string"
        }
      ],
      "stateMutability": "view",
      "type": "function"
    },
    {
      "inputs": [
        {
          "internalType": "address",
          "name": "operator_",
          "type": "address"
        },
        {
          "internalType": "address",
          "name": "from_",
          "type": "address"
        },
        {
          "internalType": "uint256",
          "name": "tokenId_",
          "type": "uint256"
        },
        {
          "internalType": "bytes",
          "name": "data_",
          "type": "bytes"
        }
      ],
      "name": "onERC721Received",
      "outputs": [
        {
          "internalType": "bytes4",
          "name": "",
          "type": "bytes4"
        }
      ],
      "stateMutability": "nonpayable",
      "type": "function"
    },
    {
      "inputs": [],
      "name": "owner",
      "outputs": [
        {
          "internalType": "address",
          "name": "",
          "type": "address"
        }
      ],
      "stateMutability": "view",
      "type": "function"
    },
    {
      "inputs": [
        {
          "internalType": "uint256",
          "name": "tokenId",
          "type": "uint256"
        }
      ],
      "name": "ownerOf",
      "outputs": [
        {
          "internalType": "address",
          "name": "",
          "type": "address"
        }
      ],
      "stateMutability": "view",
      "type": "function"
    },
    {
      "inputs": [],
      "name": "pause",
      "outputs": [],
      "stateMutability": "nonpayable",
      "type": "function"
    },
    {
      "inputs": [],
      "name": "paused",
      "outputs": [
        {
          "internalType": "bool",
          "name": "",
          "type": "bool"
        }
      ],
      "stateMutability": "view",
      "type": "function"
    },
    {
      "inputs": [],
      "name": "renounceOwnership",
      "outputs": [],
      "stateMutability": "nonpayable",
      "type": "function"
    },
    {
      "inputs": [
        {
          "internalType": "address",
          "name": "from",
          "type": "address"
        },
        {
          "internalType": "address",
          "name": "to",
          "type": "address"
        },
        {
          "internalType": "uint256",
          "name": "tokenId",
          "type": "uint256"
        }
      ],
      "name": "safeTransferFrom",
      "outputs": [],
      "stateMutability": "nonpayable",
      "type": "function"
    },
    {
      "inputs": [
        {
          "internalType": "address",
          "name": "from",
          "type": "address"
        },
        {
          "internalType": "address",
          "name": "to",
          "type": "address"
        },
        {
          "internalType": "uint256",
          "name": "tokenId",
          "type": "uint256"
        },
        {
          "internalType": "bytes",
          "name": "data",
          "type": "bytes"
        }
      ],
      "name": "safeTransferFrom",
      "outputs": [],
      "stateMutability": "nonpayable",
      "type": "function"
    },
    {
      "inputs": [
        {
          "internalType": "address",
          "name": "operator",
          "type": "address"
        },
        {
          "internalType": "bool",
          "name": "approved",
          "type": "bool"
        }
      ],
      "name": "setApprovalForAll",
      "outputs": [],
      "stateMutability": "nonpayable",
      "type": "function"
    },
    {
      "inputs": [
        {
          "internalType": "bytes4",
          "name": "interfaceId",
          "type": "bytes4"
        }
      ],
      "name": "supportsInterface",
      "outputs": [
        {
          "internalType": "bool",
          "name": "",
          "type": "bool"
        }
      ],
      "stateMutability": "view",
      "type": "function"
    },
    {
      "inputs": [],
      "name": "symbol",
      "outputs": [
        {
          "internalType": "string",
          "name": "",
          "type": "string"
        }
      ],
      "stateMutability": "view",
      "type": "function"
    },
    {
      "inputs": [
        {
          "internalType": "uint256",
          "name": "tokenId",
          "type": "uint256"
        }
      ],
      "name": "tokenURI",
      "outputs": [
        {
          "internalType": "string",
          "name": "",
          "type": "string"
        }
      ],
      "stateMutability": "view",
      "type": "function"
    },
    {
      "inputs": [
        {
          "internalType": "address",
          "name": "from",
          "type": "address"
        },
        {
          "internalType": "address",
          "name": "to",
          "type": "address"
        },
        {
          "internalType": "uint256",
          "name": "tokenId",
          "type": "uint256"
        }
      ],
      "name": "transferFrom",
      "outputs": [],
      "stateMutability": "nonpayable",
      "type": "function"
    },
    {
      "inputs": [
        {
          "internalType": "address",
          "name": "newOwner",
          "type": "address"
        }
      ],
      "name": "transferOwnership",
      "outputs": [],
      "stateMutability": "nonpayable",
      "type": "function"
    },
    {
      "inputs": [],
      "name": "unpause",
      "outputs": [],
      "stateMutability": "nonpayable",
      "type": "function"
    },
    {
      "inputs": [
        {
          "internalType": "uint256[]",
          "name": "tokenIds_",
          "type": "uint256[]"
        }
      ],
      "name": "unwrap",
      "outputs": [],
      "stateMutability": "nonpayable",
      "type": "function"
    },
    {
      "inputs": [
        {
          "internalType": "address",
          "name": "token",
          "type": "address"
        }
      ],
      "name": "withdrawERC20",
      "outputs": [],
      "stateMutability": "nonpayable",
      "type": "function"
    },
    {
      "inputs": [],
      "name": "withdrawETH",
      "outputs": [],
      "stateMutability": "nonpayable",
      "type": "function"
    },
    {
      "inputs": [
        {
          "internalType": "uint256[]",
          "name": "tokenIds_",
          "type": "uint256[]"
        }
      ],
      "name": "wrap",
      "outputs": [],
      "stateMutability": "nonpayable",
      "type": "function"
    },
    {
      "stateMutability": "payable",
      "type": "receive"
    }
  ],
  "bytecode": "0x60a06040523480156200001157600080fd5b506040516200426738038062004267833981810160405281019062000037919062000277565b6040518060400160405280600981526020017f46726565426972647300000000000000000000000000000000000000000000008152506040518060400160405280600281526020017f46420000000000000000000000000000000000000000000000000000000000008152508160009081620000b4919062000523565b508060019081620000c6919062000523565b5050506000600660006101000a81548160ff02191690831515021790555062000104620000f86200013f60201b60201c565b6200014760201b60201c565b8073ffffffffffffffffffffffffffffffffffffffff1660808173ffffffffffffffffffffffffffffffffffffffff1681525050506200060a565b600033905090565b6000600660019054906101000a900473ffffffffffffffffffffffffffffffffffffffff16905081600660016101000a81548173ffffffffffffffffffffffffffffffffffffffff021916908373ffffffffffffffffffffffffffffffffffffffff1602179055508173ffffffffffffffffffffffffffffffffffffffff168173ffffffffffffffffffffffffffffffffffffffff167f8be0079c531659141344cd1fd0a4f28419497f9722a3daafe3b4186f6b6457e060405160405180910390a35050565b600080fd5b600073ffffffffffffffffffffffffffffffffffffffff82169050919050565b60006200023f8262000212565b9050919050565b620002518162000232565b81146200025d57600080fd5b50565b600081519050620002718162000246565b92915050565b60006020828403121562000290576200028f6200020d565b5b6000620002a08482850162000260565b91505092915050565b600081519050919050565b7f4e487b7100000000000000000000000000000000000000000000000000000000600052604160045260246000fd5b7f4e487b7100000000000000000000000000000000000000000000000000000000600052602260045260246000fd5b600060028204905060018216806200032b57607f821691505b602082108103620003415762000340620002e3565b5b50919050565b60008190508160005260206000209050919050565b60006020601f8301049050919050565b600082821b905092915050565b600060088302620003ab7fffffffffffffffffffffffffffffffffffffffffffffffffffffffffffffffff826200036c565b620003b786836200036c565b95508019841693508086168417925050509392505050565b6000819050919050565b6000819050919050565b600062000404620003fe620003f884620003cf565b620003d9565b620003cf565b9050919050565b6000819050919050565b6200042083620003e3565b620004386200042f826200040b565b84845462000379565b825550505050565b600090565b6200044f62000440565b6200045c81848462000415565b505050565b5b8181101562000484576200047860008262000445565b60018101905062000462565b5050565b601f821115620004d3576200049d8162000347565b620004a8846200035c565b81016020851015620004b8578190505b620004d0620004c7856200035c565b83018262000461565b50505b505050565b600082821c905092915050565b6000620004f860001984600802620004d8565b1980831691505092915050565b6000620005138383620004e5565b9150826002028217905092915050565b6200052e82620002a9565b67ffffffffffffffff8111156200054a5762000549620002b4565b5b62000556825462000312565b6200056382828562000488565b600060209050601f8311600181146200059b576000841562000586578287015190505b62000592858262000505565b86555062000602565b601f198416620005ab8662000347565b60005b82811015620005d557848901518255600182019150602085019450602081019050620005ae565b86831015620005f55784890151620005f1601f891682620004e5565b8355505b6001600288020188555050505b505050505050565b608051613c2562000642600039600081816108d90152818161099f01528181610a8d015281816110b201526116bb0152613c256000f3fe6080604052600436106101855760003560e01c806370a08231116100d1578063b88d4fde1161008a578063e086e5ec11610064578063e086e5ec1461055e578063e985e9c514610575578063f2fde38b146105b2578063f4f3b200146105db5761018c565b8063b88d4fde146104cf578063c87b56dd146104f8578063cc17a5bf146105355761018c565b806370a08231146103e5578063715018a6146104225780638456cb59146104395780638da5cb5b1461045057806395d89b411461047b578063a22cb465146104a65761018c565b80633f44f32c1161013e57806342966c681161011857806342966c681461032b5780635c975abb146103545780636352211e1461037f57806363ac2a4c146103bc5761018c565b80633f44f32c146102c25780633f4ba83a146102eb57806342842e0e146103025761018c565b806301ffc9a71461018e57806306fdde03146101cb578063081812fc146101f6578063095ea7b314610233578063150b7a021461025c57806323b872dd146102995761018c565b3661018c57005b005b34801561019a57600080fd5b506101b560048036038101906101b091906126d6565b610604565b6040516101c2919061271e565b60405180910390f35b3480156101d757600080fd5b506101e06106e6565b6040516101ed91906127c9565b60405180910390f35b34801561020257600080fd5b5061021d60048036038101906102189190612821565b610778565b60405161022a919061288f565b60405180910390f35b34801561023f57600080fd5b5061025a600480360381019061025591906128d6565b6107be565b005b34801561026857600080fd5b50610283600480360381019061027e9190612a4b565b6108d5565b6040516102909190612add565b60405180910390f35b3480156102a557600080fd5b506102c060048036038101906102bb9190612af8565b610a0c565b005b3480156102ce57600080fd5b506102e960048036038101906102e49190612821565b610a6c565b005b3480156102f757600080fd5b50610300610cb0565b005b34801561030e57600080fd5b5061032960048036038101906103249190612af8565b610cc2565b005b34801561033757600080fd5b50610352600480360381019061034d9190612821565b610ce2565b005b34801561036057600080fd5b50610369610d3e565b604051610376919061271e565b60405180910390f35b34801561038b57600080fd5b506103a660048036038101906103a19190612821565b610d55565b6040516103b3919061288f565b60405180910390f35b3480156103c857600080fd5b506103e360048036038101906103de9190612bab565b610e06565b005b3480156103f157600080fd5b5061040c60048036038101906104079190612bf8565b610e60565b6040516104199190612c34565b60405180910390f35b34801561042e57600080fd5b50610437610f17565b005b34801561044557600080fd5b5061044e610f2b565b005b34801561045c57600080fd5b50610465610f3d565b604051610472919061288f565b60405180910390f35b34801561048757600080fd5b50610490610f67565b60405161049d91906127c9565b60405180910390f35b3480156104b257600080fd5b506104cd60048036038101906104c89190612c7b565b610ff9565b005b3480156104db57600080fd5b506104f660048036038101906104f19190612a4b565b61100f565b005b34801561050457600080fd5b5061051f600480360381019061051a9190612821565b611071565b60405161052c91906127c9565b60405180910390f35b34801561054157600080fd5b5061055c60048036038101906105579190612bab565b6110a2565b005b34801561056a57600080fd5b50610573611170565b005b34801561058157600080fd5b5061059c60048036038101906105979190612cbb565b61122e565b6040516105a9919061271e565b60405180910390f35b3480156105be57600080fd5b506105d960048036038101906105d49190612bf8565b6112c2565b005b3480156105e757600080fd5b5061060260048036038101906105fd9190612bf8565b611345565b005b60007f80ac58cd000000000000000000000000000000000000000000000000000000007bffffffffffffffffffffffffffffffffffffffffffffffffffffffff1916827bffffffffffffffffffffffffffffffffffffffffffffffffffffffff191614806106cf57507f5b5e139f000000000000000000000000000000000000000000000000000000007bffffffffffffffffffffffffffffffffffffffffffffffffffffffff1916827bffffffffffffffffffffffffffffffffffffffffffffffffffffffff1916145b806106df57506106de82611493565b5b9050919050565b6060600080546106f590612d2a565b80601f016020809104026020016040519081016040528092919081815260200182805461072190612d2a565b801561076e5780601f106107435761010080835404028352916020019161076e565b820191906000526020600020905b81548152906001019060200180831161075157829003601f168201915b5050505050905090565b6000610783826114fd565b6004600083815260200190815260200160002060009054906101000a900473ffffffffffffffffffffffffffffffffffffffff169050919050565b60006107c982610d55565b90508073ffffffffffffffffffffffffffffffffffffffff168373ffffffffffffffffffffffffffffffffffffffff1603610839576040517f08c379a000000000000000000000000000000000000000000000000000000000815260040161083090612dcd565b60405180910390fd5b8073ffffffffffffffffffffffffffffffffffffffff16610858611548565b73ffffffffffffffffffffffffffffffffffffffff161480610887575061088681610881611548565b61122e565b5b6108c6576040517f08c379a00000000000000000000000000000000000000000000000000000000081526004016108bd90612e5f565b60405180910390fd5b6108d08383611550565b505050565b60007f000000000000000000000000000000000000000000000000000000000000000073ffffffffffffffffffffffffffffffffffffffff163373ffffffffffffffffffffffffffffffffffffffff16148061095c57503073ffffffffffffffffffffffffffffffffffffffff163373ffffffffffffffffffffffffffffffffffffffff16145b61099b576040517f08c379a000000000000000000000000000000000000000000000000000000000815260040161099290612ecb565b60405180910390fd5b60007f000000000000000000000000000000000000000000000000000000000000000073ffffffffffffffffffffffffffffffffffffffff163373ffffffffffffffffffffffffffffffffffffffff161490506109f9858286611609565b63150b7a0260e01b915050949350505050565b610a1d610a17611548565b8261177b565b610a5c576040517f08c379a0000000000000000000000000000000000000000000000000000000008152600401610a5390612f5d565b60405180910390fd5b610a67838383611810565b505050565b610a74611a76565b3073ffffffffffffffffffffffffffffffffffffffff167f000000000000000000000000000000000000000000000000000000000000000073ffffffffffffffffffffffffffffffffffffffff16636352211e836040518263ffffffff1660e01b8152600401610ae49190612c34565b602060405180830381865afa158015610b01573d6000803e3d6000fd5b505050506040513d601f19601f82011682018060405250810190610b259190612f92565b73ffffffffffffffffffffffffffffffffffffffff1603610c7257610b4981611af4565b8015610b8857503073ffffffffffffffffffffffffffffffffffffffff16610b7082610d55565b73ffffffffffffffffffffffffffffffffffffffff16145b15610be157610baf30610b99610f3d565b8360405180602001604052806000815250611b60565b807f5b8cd8f3a67af1dee11ad4321a05f79a76cc7ea517810fc56d6d96c1e60d368660405160405180910390a2610c6d565b610bea81611af4565b610c3157610bff610bf9610f3d565b82611bbc565b807f5b8cd8f3a67af1dee11ad4321a05f79a76cc7ea517810fc56d6d96c1e60d368660405160405180910390a2610c6c565b6040517f08c379a0000000000000000000000000000000000000000000000000000000008152600401610c6390613031565b60405180910390fd5b5b610cad565b6040517f08c379a0000000000000000000000000000000000000000000000000000000008152600401610ca4906130c3565b60405180910390fd5b50565b610cb8611a76565b610cc0611bda565b565b610cdd8383836040518060200160405280600081525061100f565b505050565b610cf3610ced611548565b8261177b565b610d32576040517f08c379a0000000000000000000000000000000000000000000000000000000008152600401610d2990612f5d565b60405180910390fd5b610d3b81611c3d565b50565b6000600660009054906101000a900460ff16905090565b6000806002600084815260200190815260200160002060009054906101000a900473ffffffffffffffffffffffffffffffffffffffff169050600073ffffffffffffffffffffffffffffffffffffffff168173ffffffffffffffffffffffffffffffffffffffff1603610dfd576040517f08c379a0000000000000000000000000000000000000000000000000000000008152600401610df49061312f565b60405180910390fd5b80915050919050565b60005b82829050811015610e5b57610e483330858585818110610e2c57610e2b61314f565b5b9050602002013560405180602001604052806000815250611b60565b8080610e53906131ad565b915050610e09565b505050565b60008073ffffffffffffffffffffffffffffffffffffffff168273ffffffffffffffffffffffffffffffffffffffff1603610ed0576040517f08c379a0000000000000000000000000000000000000000000000000000000008152600401610ec790613267565b60405180910390fd5b600360008373ffffffffffffffffffffffffffffffffffffffff1673ffffffffffffffffffffffffffffffffffffffff168152602001908152602001600020549050919050565b610f1f611a76565b610f296000611d5a565b565b610f33611a76565b610f3b611e20565b565b6000600660019054906101000a900473ffffffffffffffffffffffffffffffffffffffff16905090565b606060018054610f7690612d2a565b80601f0160208091040260200160405190810160405280929190818152602001828054610fa290612d2a565b8015610fef5780601f10610fc457610100808354040283529160200191610fef565b820191906000526020600020905b815481529060010190602001808311610fd257829003601f168201915b5050505050905090565b61100b611004611548565b8383611e83565b5050565b61102061101a611548565b8361177b565b61105f576040517f08c379a000000000000000000000000000000000000000000000000000000000815260040161105690612f5d565b60405180910390fd5b61106b84848484611b60565b50505050565b606061107c82611fef565b60405160200161108c91906132c3565b6040516020818303038152906040529050919050565b60005b8282905081101561116b577f000000000000000000000000000000000000000000000000000000000000000073ffffffffffffffffffffffffffffffffffffffff166342842e0e33308686868181106111015761110061314f565b5b905060200201356040518463ffffffff1660e01b8152600401611126939291906132da565b600060405180830381600087803b15801561114057600080fd5b505af1158015611154573d6000803e3d6000fd5b505050508080611163906131ad565b9150506110a5565b505050565b611178611a76565b6000611182610f3d565b73ffffffffffffffffffffffffffffffffffffffff16476040516111a590613342565b60006040518083038185875af1925050503d80600081146111e2576040519150601f19603f3d011682016040523d82523d6000602084013e6111e7565b606091505b505090508061122b576040517f08c379a0000000000000000000000000000000000000000000000000000000008152600401611222906133a3565b60405180910390fd5b50565b6000600560008473ffffffffffffffffffffffffffffffffffffffff1673ffffffffffffffffffffffffffffffffffffffff16815260200190815260200160002060008373ffffffffffffffffffffffffffffffffffffffff1673ffffffffffffffffffffffffffffffffffffffff16815260200190815260200160002060009054906101000a900460ff16905092915050565b6112ca611a76565b600073ffffffffffffffffffffffffffffffffffffffff168173ffffffffffffffffffffffffffffffffffffffff1603611339576040517f08c379a000000000000000000000000000000000000000000000000000000000815260040161133090613435565b60405180910390fd5b61134281611d5a565b50565b61134d611a76565b60008173ffffffffffffffffffffffffffffffffffffffff1663a9059cbb611373610f3d565b8473ffffffffffffffffffffffffffffffffffffffff166370a08231306040518263ffffffff1660e01b81526004016113ac919061288f565b602060405180830381865afa1580156113c9573d6000803e3d6000fd5b505050506040513d601f19601f820116820180604052508101906113ed919061346a565b6040518363ffffffff1660e01b815260040161140a929190613497565b6020604051808303816000875af1158015611429573d6000803e3d6000fd5b505050506040513d601f19601f8201168201806040525081019061144d91906134d5565b90508061148f576040517f08c379a00000000000000000000000000000000000000000000000000000000081526004016114869061354e565b60405180910390fd5b5050565b60007f01ffc9a7000000000000000000000000000000000000000000000000000000007bffffffffffffffffffffffffffffffffffffffffffffffffffffffff1916827bffffffffffffffffffffffffffffffffffffffffffffffffffffffff1916149050919050565b61150681611af4565b611545576040517f08c379a000000000000000000000000000000000000000000000000000000000815260040161153c9061312f565b60405180910390fd5b50565b600033905090565b816004600083815260200190815260200160002060006101000a81548173ffffffffffffffffffffffffffffffffffffffff021916908373ffffffffffffffffffffffffffffffffffffffff160217905550808273ffffffffffffffffffffffffffffffffffffffff166115c383610d55565b73ffffffffffffffffffffffffffffffffffffffff167f8c5be1e5ebec7d5bd14f71427d1e84f3dd0314c0f7b2291e5b200ac8c7c3b92560405160405180910390a45050565b81156116b95761161881611af4565b801561165757503073ffffffffffffffffffffffffffffffffffffffff1661163f82610d55565b73ffffffffffffffffffffffffffffffffffffffff16145b1561167c5761167730848360405180602001604052806000815250611b60565b611687565b6116868382611bbc565b5b807f5b8cd8f3a67af1dee11ad4321a05f79a76cc7ea517810fc56d6d96c1e60d368660405160405180910390a2611776565b7f000000000000000000000000000000000000000000000000000000000000000073ffffffffffffffffffffffffffffffffffffffff166342842e0e3085846040518463ffffffff1660e01b8152600401611716939291906132da565b600060405180830381600087803b15801561173057600080fd5b505af1158015611744573d6000803e3d6000fd5b50505050807fbeaa92c6354c6dcf375d2c514352b2c11bc865784722e5dd9b267e606eb5fc5f60405160405180910390a25b505050565b60008061178783610d55565b90508073ffffffffffffffffffffffffffffffffffffffff168473ffffffffffffffffffffffffffffffffffffffff1614806117c957506117c8818561122e565b5b8061180757508373ffffffffffffffffffffffffffffffffffffffff166117ef84610778565b73ffffffffffffffffffffffffffffffffffffffff16145b91505092915050565b8273ffffffffffffffffffffffffffffffffffffffff1661183082610d55565b73ffffffffffffffffffffffffffffffffffffffff1614611886576040517f08c379a000000000000000000000000000000000000000000000000000000000815260040161187d906135e0565b60405180910390fd5b600073ffffffffffffffffffffffffffffffffffffffff168273ffffffffffffffffffffffffffffffffffffffff16036118f5576040517f08c379a00000000000000000000000000000000000000000000000000000000081526004016118ec90613672565b60405180910390fd5b611900838383612057565b61190b600082611550565b6001600360008573ffffffffffffffffffffffffffffffffffffffff1673ffffffffffffffffffffffffffffffffffffffff168152602001908152602001600020600082825461195b9190613692565b925050819055506001600360008473ffffffffffffffffffffffffffffffffffffffff1673ffffffffffffffffffffffffffffffffffffffff16815260200190815260200160002060008282546119b291906136c6565b92505081905550816002600083815260200190815260200160002060006101000a81548173ffffffffffffffffffffffffffffffffffffffff021916908373ffffffffffffffffffffffffffffffffffffffff160217905550808273ffffffffffffffffffffffffffffffffffffffff168473ffffffffffffffffffffffffffffffffffffffff167fddf252ad1be2c89b69c2b068fc378daa952ba7f163c4a11628f55a4df523b3ef60405160405180910390a4611a7183838361206f565b505050565b611a7e611548565b73ffffffffffffffffffffffffffffffffffffffff16611a9c610f3d565b73ffffffffffffffffffffffffffffffffffffffff1614611af2576040517f08c379a0000000000000000000000000000000000000000000000000000000008152600401611ae990613746565b60405180910390fd5b565b60008073ffffffffffffffffffffffffffffffffffffffff166002600084815260200190815260200160002060009054906101000a900473ffffffffffffffffffffffffffffffffffffffff1673ffffffffffffffffffffffffffffffffffffffff1614159050919050565b611b6b848484611810565b611b7784848484612074565b611bb6576040517f08c379a0000000000000000000000000000000000000000000000000000000008152600401611bad906137d8565b60405180910390fd5b50505050565b611bd68282604051806020016040528060008152506121fb565b5050565b611be2612256565b6000600660006101000a81548160ff0219169083151502179055507f5db9ee0a495bf2e6ff9c91a7834c1ba4fdd244a5e8aa4e537bd38aeae4b073aa611c26611548565b604051611c33919061288f565b60405180910390a1565b6000611c4882610d55565b9050611c5681600084612057565b611c61600083611550565b6001600360008373ffffffffffffffffffffffffffffffffffffffff1673ffffffffffffffffffffffffffffffffffffffff1681526020019081526020016000206000828254611cb19190613692565b925050819055506002600083815260200190815260200160002060006101000a81549073ffffffffffffffffffffffffffffffffffffffff021916905581600073ffffffffffffffffffffffffffffffffffffffff168273ffffffffffffffffffffffffffffffffffffffff167fddf252ad1be2c89b69c2b068fc378daa952ba7f163c4a11628f55a4df523b3ef60405160405180910390a4611d568160008461206f565b5050565b6000600660019054906101000a900473ffffffffffffffffffffffffffffffffffffffff16905081600660016101000a81548173ffffffffffffffffffffffffffffffffffffffff021916908373ffffffffffffffffffffffffffffffffffffffff1602179055508173ffffffffffffffffffffffffffffffffffffffff168173ffffffffffffffffffffffffffffffffffffffff167f8be0079c531659141344cd1fd0a4f28419497f9722a3daafe3b4186f6b6457e060405160405180910390a35050565b611e2861229f565b6001600660006101000a81548160ff0219169083151502179055507f62e78cea01bee320cd4e420270b5ea74000d11b0c9f74754ebdbfc544b05a258611e6c611548565b604051611e79919061288f565b60405180910390a1565b8173ffffffffffffffffffffffffffffffffffffffff168373ffffffffffffffffffffffffffffffffffffffff1603611ef1576040517f08c379a0000000000000000000000000000000000000000000000000000000008152600401611ee890613844565b60405180910390fd5b80600560008573ffffffffffffffffffffffffffffffffffffffff1673ffffffffffffffffffffffffffffffffffffffff16815260200190815260200160002060008473ffffffffffffffffffffffffffffffffffffffff1673ffffffffffffffffffffffffffffffffffffffff16815260200190815260200160002060006101000a81548160ff0219169083151502179055508173ffffffffffffffffffffffffffffffffffffffff168373ffffffffffffffffffffffffffffffffffffffff167f17307eab39ab6107e8899845ad3d59bd9653f200f220920489ca2b5937696c3183604051611fe2919061271e565b60405180910390a3505050565b6060611ffa826114fd565b60006120046122e9565b90506000815111612024576040518060200160405280600081525061204f565b8061202e84612309565b60405160200161203f929190613864565b6040516020818303038152906040525b915050919050565b61205f61229f565b61206a838383612469565b505050565b505050565b60006120958473ffffffffffffffffffffffffffffffffffffffff1661246e565b156121ee578373ffffffffffffffffffffffffffffffffffffffff1663150b7a026120be611548565b8786866040518563ffffffff1660e01b81526004016120e094939291906138dd565b6020604051808303816000875af192505050801561211c57506040513d601f19601f82011682018060405250810190612119919061393e565b60015b61219e573d806000811461214c576040519150601f19603f3d011682016040523d82523d6000602084013e612151565b606091505b506000815103612196576040517f08c379a000000000000000000000000000000000000000000000000000000000815260040161218d906137d8565b60405180910390fd5b805181602001fd5b63150b7a0260e01b7bffffffffffffffffffffffffffffffffffffffffffffffffffffffff1916817bffffffffffffffffffffffffffffffffffffffffffffffffffffffff1916149150506121f3565b600190505b949350505050565b6122058383612491565b6122126000848484612074565b612251576040517f08c379a0000000000000000000000000000000000000000000000000000000008152600401612248906137d8565b60405180910390fd5b505050565b61225e610d3e565b61229d576040517f08c379a0000000000000000000000000000000000000000000000000000000008152600401612294906139b7565b60405180910390fd5b565b6122a7610d3e565b156122e7576040517f08c379a00000000000000000000000000000000000000000000000000000000081526004016122de90613a23565b60405180910390fd5b565b6060604051806080016040528060438152602001613bad60439139905090565b606060008203612350576040518060400160405280600181526020017f30000000000000000000000000000000000000000000000000000000000000008152509050612464565b600082905060005b6000821461238257808061236b906131ad565b915050600a8261237b9190613a72565b9150612358565b60008167ffffffffffffffff81111561239e5761239d612920565b5b6040519080825280601f01601f1916602001820160405280156123d05781602001600182028036833780820191505090505b5090505b6000851461245d576001826123e99190613692565b9150600a856123f89190613aa3565b603061240491906136c6565b60f81b81838151811061241a5761241961314f565b5b60200101907effffffffffffffffffffffffffffffffffffffffffffffffffffffffffffff1916908160001a905350600a856124569190613a72565b94506123d4565b8093505050505b919050565b505050565b6000808273ffffffffffffffffffffffffffffffffffffffff163b119050919050565b600073ffffffffffffffffffffffffffffffffffffffff168273ffffffffffffffffffffffffffffffffffffffff1603612500576040517f08c379a00000000000000000000000000000000000000000000000000000000081526004016124f790613b20565b60405180910390fd5b61250981611af4565b15612549576040517f08c379a000000000000000000000000000000000000000000000000000000000815260040161254090613b8c565b60405180910390fd5b61255560008383612057565b6001600360008473ffffffffffffffffffffffffffffffffffffffff1673ffffffffffffffffffffffffffffffffffffffff16815260200190815260200160002060008282546125a591906136c6565b92505081905550816002600083815260200190815260200160002060006101000a81548173ffffffffffffffffffffffffffffffffffffffff021916908373ffffffffffffffffffffffffffffffffffffffff160217905550808273ffffffffffffffffffffffffffffffffffffffff16600073ffffffffffffffffffffffffffffffffffffffff167fddf252ad1be2c89b69c2b068fc378daa952ba7f163c4a11628f55a4df523b3ef60405160405180910390a46126666000838361206f565b5050565b6000604051905090565b600080fd5b600080fd5b60007fffffffff0000000000000000000000000000000000000000000000000000000082169050919050565b6126b38161267e565b81146126be57600080fd5b50565b6000813590506126d0816126aa565b92915050565b6000602082840312156126ec576126eb612674565b5b60006126fa848285016126c1565b91505092915050565b60008115159050919050565b61271881612703565b82525050565b6000602082019050612733600083018461270f565b92915050565b600081519050919050565b600082825260208201905092915050565b60005b83811015612773578082015181840152602081019050612758565b60008484015250505050565b6000601f19601f8301169050919050565b600061279b82612739565b6127a58185612744565b93506127b5818560208601612755565b6127be8161277f565b840191505092915050565b600060208201905081810360008301526127e38184612790565b905092915050565b6000819050919050565b6127fe816127eb565b811461280957600080fd5b50565b60008135905061281b816127f5565b92915050565b60006020828403121561283757612836612674565b5b60006128458482850161280c565b91505092915050565b600073ffffffffffffffffffffffffffffffffffffffff82169050919050565b60006128798261284e565b9050919050565b6128898161286e565b82525050565b60006020820190506128a46000830184612880565b92915050565b6128b38161286e565b81146128be57600080fd5b50565b6000813590506128d0816128aa565b92915050565b600080604083850312156128ed576128ec612674565b5b60006128fb858286016128c1565b925050602061290c8582860161280c565b9150509250929050565b600080fd5b600080fd5b7f4e487b7100000000000000000000000000000000000000000000000000000000600052604160045260246000fd5b6129588261277f565b810181811067ffffffffffffffff8211171561297757612976612920565b5b80604052505050565b600061298a61266a565b9050612996828261294f565b919050565b600067ffffffffffffffff8211156129b6576129b5612920565b5b6129bf8261277f565b9050602081019050919050565b82818337600083830152505050565b60006129ee6129e98461299b565b612980565b905082815260208101848484011115612a0a57612a0961291b565b5b612a158482856129cc565b509392505050565b600082601f830112612a3257612a31612916565b5b8135612a428482602086016129db565b91505092915050565b60008060008060808587031215612a6557612a64612674565b5b6000612a73878288016128c1565b9450506020612a84878288016128c1565b9350506040612a958782880161280c565b925050606085013567ffffffffffffffff811115612ab657612ab5612679565b5b612ac287828801612a1d565b91505092959194509250565b612ad78161267e565b82525050565b6000602082019050612af26000830184612ace565b92915050565b600080600060608486031215612b1157612b10612674565b5b6000612b1f868287016128c1565b9350506020612b30868287016128c1565b9250506040612b418682870161280c565b9150509250925092565b600080fd5b600080fd5b60008083601f840112612b6b57612b6a612916565b5b8235905067ffffffffffffffff811115612b8857612b87612b4b565b5b602083019150836020820283011115612ba457612ba3612b50565b5b9250929050565b60008060208385031215612bc257612bc1612674565b5b600083013567ffffffffffffffff811115612be057612bdf612679565b5b612bec85828601612b55565b92509250509250929050565b600060208284031215612c0e57612c0d612674565b5b6000612c1c848285016128c1565b91505092915050565b612c2e816127eb565b82525050565b6000602082019050612c496000830184612c25565b92915050565b612c5881612703565b8114612c6357600080fd5b50565b600081359050612c7581612c4f565b92915050565b60008060408385031215612c9257612c91612674565b5b6000612ca0858286016128c1565b9250506020612cb185828601612c66565b9150509250929050565b60008060408385031215612cd257612cd1612674565b5b6000612ce0858286016128c1565b9250506020612cf1858286016128c1565b9150509250929050565b7f4e487b7100000000000000000000000000000000000000000000000000000000600052602260045260246000fd5b60006002820490506001821680612d4257607f821691505b602082108103612d5557612d54612cfb565b5b50919050565b7f4552433732313a20617070726f76616c20746f2063757272656e74206f776e6560008201527f7200000000000000000000000000000000000000000000000000000000000000602082015250565b6000612db7602183612744565b9150612dc282612d5b565b604082019050919050565b60006020820190508181036000830152612de681612daa565b9050919050565b7f4552433732313a20617070726f76652063616c6c6572206973206e6f7420746f60008201527f6b656e206f776e6572206e6f7220617070726f76656420666f7220616c6c0000602082015250565b6000612e49603e83612744565b9150612e5482612ded565b604082019050919050565b60006020820190508181036000830152612e7881612e3c565b9050919050565b7f6d75737420626520446972742042697264206f72204672656520426972640000600082015250565b6000612eb5601e83612744565b9150612ec082612e7f565b602082019050919050565b60006020820190508181036000830152612ee481612ea8565b9050919050565b7f4552433732313a2063616c6c6572206973206e6f7420746f6b656e206f776e6560008201527f72206e6f7220617070726f766564000000000000000000000000000000000000602082015250565b6000612f47602e83612744565b9150612f5282612eeb565b604082019050919050565b60006020820190508181036000830152612f7681612f3a565b9050919050565b600081519050612f8c816128aa565b92915050565b600060208284031215612fa857612fa7612674565b5b6000612fb684828501612f7d565b91505092915050565b7f467265652042697264206d696e74656420616e6420646973747269627574656460008201527f20616c7265616479000000000000000000000000000000000000000000000000602082015250565b600061301b602883612744565b915061302682612fbf565b604082019050919050565b6000602082019050818103600083015261304a8161300e565b9050919050565b7f446972742042697264206973206e6f74206c6f636b656420696e20636f6e747260008201527f6163740000000000000000000000000000000000000000000000000000000000602082015250565b60006130ad602383612744565b91506130b882613051565b604082019050919050565b600060208201905081810360008301526130dc816130a0565b9050919050565b7f4552433732313a20696e76616c696420746f6b656e2049440000000000000000600082015250565b6000613119601883612744565b9150613124826130e3565b602082019050919050565b600060208201905081810360008301526131488161310c565b9050919050565b7f4e487b7100000000000000000000000000000000000000000000000000000000600052603260045260246000fd5b7f4e487b7100000000000000000000000000000000000000000000000000000000600052601160045260246000fd5b60006131b8826127eb565b91507fffffffffffffffffffffffffffffffffffffffffffffffffffffffffffffffff82036131ea576131e961317e565b5b600182019050919050565b7f4552433732313a2061646472657373207a65726f206973206e6f74206120766160008201527f6c6964206f776e65720000000000000000000000000000000000000000000000602082015250565b6000613251602983612744565b915061325c826131f5565b604082019050919050565b6000602082019050818103600083015261328081613244565b9050919050565b600081905092915050565b600061329d82612739565b6132a78185613287565b93506132b7818560208601612755565b80840191505092915050565b60006132cf8284613292565b915081905092915050565b60006060820190506132ef6000830186612880565b6132fc6020830185612880565b6133096040830184612c25565b949350505050565b600081905092915050565b50565b600061332c600083613311565b91506133378261331c565b600082019050919050565b600061334d8261331f565b9150819050919050565b7f5472616e73666572206661696c65642e00000000000000000000000000000000600082015250565b600061338d601083612744565b915061339882613357565b602082019050919050565b600060208201905081810360008301526133bc81613380565b9050919050565b7f4f776e61626c653a206e6577206f776e657220697320746865207a65726f206160008201527f6464726573730000000000000000000000000000000000000000000000000000602082015250565b600061341f602683612744565b915061342a826133c3565b604082019050919050565b6000602082019050818103600083015261344e81613412565b9050919050565b600081519050613464816127f5565b92915050565b6000602082840312156134805761347f612674565b5b600061348e84828501613455565b91505092915050565b60006040820190506134ac6000830185612880565b6134b96020830184612c25565b9392505050565b6000815190506134cf81612c4f565b92915050565b6000602082840312156134eb576134ea612674565b5b60006134f9848285016134c0565b91505092915050565b7f5472616e73666572206661696c65640000000000000000000000000000000000600082015250565b6000613538600f83612744565b915061354382613502565b602082019050919050565b600060208201905081810360008301526135678161352b565b9050919050565b7f4552433732313a207472616e736665722066726f6d20696e636f72726563742060008201527f6f776e6572000000000000000000000000000000000000000000000000000000602082015250565b60006135ca602583612744565b91506135d58261356e565b604082019050919050565b600060208201905081810360008301526135f9816135bd565b9050919050565b7f4552433732313a207472616e7366657220746f20746865207a65726f2061646460008201527f7265737300000000000000000000000000000000000000000000000000000000602082015250565b600061365c602483612744565b915061366782613600565b604082019050919050565b6000602082019050818103600083015261368b8161364f565b9050919050565b600061369d826127eb565b91506136a8836127eb565b92508282039050818111156136c0576136bf61317e565b5b92915050565b60006136d1826127eb565b91506136dc836127eb565b92508282019050808211156136f4576136f361317e565b5b92915050565b7f4f776e61626c653a2063616c6c6572206973206e6f7420746865206f776e6572600082015250565b6000613730602083612744565b915061373b826136fa565b602082019050919050565b6000602082019050818103600083015261375f81613723565b9050919050565b7f4552433732313a207472616e7366657220746f206e6f6e20455243373231526560008201527f63656976657220696d706c656d656e7465720000000000000000000000000000602082015250565b60006137c2603283612744565b91506137cd82613766565b604082019050919050565b600060208201905081810360008301526137f1816137b5565b9050919050565b7f4552433732313a20617070726f766520746f2063616c6c657200000000000000600082015250565b600061382e601983612744565b9150613839826137f8565b602082019050919050565b6000602082019050818103600083015261385d81613821565b9050919050565b60006138708285613292565b915061387c8284613292565b91508190509392505050565b600081519050919050565b600082825260208201905092915050565b60006138af82613888565b6138b98185613893565b93506138c9818560208601612755565b6138d28161277f565b840191505092915050565b60006080820190506138f26000830187612880565b6138ff6020830186612880565b61390c6040830185612c25565b818103606083015261391e81846138a4565b905095945050505050565b600081519050613938816126aa565b92915050565b60006020828403121561395457613953612674565b5b600061396284828501613929565b91505092915050565b7f5061757361626c653a206e6f7420706175736564000000000000000000000000600082015250565b60006139a1601483612744565b91506139ac8261396b565b602082019050919050565b600060208201905081810360008301526139d081613994565b9050919050565b7f5061757361626c653a2070617573656400000000000000000000000000000000600082015250565b6000613a0d601083612744565b9150613a18826139d7565b602082019050919050565b60006020820190508181036000830152613a3c81613a00565b9050919050565b7f4e487b7100000000000000000000000000000000000000000000000000000000600052601260045260246000fd5b6000613a7d826127eb565b9150613a88836127eb565b925082613a9857613a97613a43565b5b828204905092915050565b6000613aae826127eb565b9150613ab9836127eb565b925082613ac957613ac8613a43565b5b828206905092915050565b7f4552433732313a206d696e7420746f20746865207a65726f2061646472657373600082015250565b6000613b0a602083612744565b9150613b1582613ad4565b602082019050919050565b60006020820190508181036000830152613b3981613afd565b9050919050565b7f4552433732313a20746f6b656e20616c7265616479206d696e74656400000000600082015250565b6000613b76601c83612744565b9150613b8182613b40565b602082019050919050565b60006020820190508181036000830152613ba581613b69565b905091905056fe697066733a2f2f62616679626569647235663372716c6e6e6968717136727379646c746d7a6e62737a357a63726233347778717233376a7168366b627a75697136792fa26469706673582212202ecb1707a15a9f1b646a84a9c3d8adc0059df2871a29c1810bb2ed7871ee5b7964736f6c63430008110033",
  "linkReferences": {},
  "deployedLinkReferences": {}
}