{
  "_format": "hh-sol-artifact-1",
  "contractName": "TempBirds",
  "sourceName": "contracts/tempbirds.sol",
  "abi": [
    {
      "inputs": [],
      "stateMutability": "nonpayable",
      "type": "constructor"
    },
    {
      "inputs": [],
      "name": "ApprovalCallerNotOwnerNorApproved",
      "type": "error"
    },
    {
      "inputs": [],
      "name": "ApprovalQueryForNonexistentToken",
      "type": "error"
    },
    {
      "inputs": [],
      "name": "BalanceQueryForZeroAddress",
      "type": "error"
    },
    {
      "inputs": [],
      "name": "MintERC2309QuantityExceedsLimit",
      "type": "error"
    },
    {
      "inputs": [],
      "name": "MintToZeroAddress",
      "type": "error"
    },
    {
      "inputs": [],
      "name": "MintZeroQuantity",
      "type": "error"
    },
    {
      "inputs": [],
      "name": "OwnerQueryForNonexistentToken",
      "type": "error"
    },
    {
      "inputs": [],
      "name": "OwnershipNotInitializedForExtraData",
      "type": "error"
    },
    {
      "inputs": [],
      "name": "TransferCallerNotOwnerNorApproved",
      "type": "error"
    },
    {
      "inputs": [],
      "name": "TransferFromIncorrectOwner",
      "type": "error"
    },
    {
      "inputs": [],
      "name": "TransferToNonERC721ReceiverImplementer",
      "type": "error"
    },
    {
      "inputs": [],
      "name": "TransferToZeroAddress",
      "type": "error"
    },
    {
      "inputs": [],
      "name": "URIQueryForNonexistentToken",
      "type": "error"
    },
    {
      "anonymous": false,
      "inputs": [
        {
          "indexed": true,
          "internalType": "address",
          "name": "owner",
          "type": "address"
        },
        {
          "indexed": true,
          "internalType": "address",
          "name": "approved",
          "type": "address"
        },
        {
          "indexed": true,
          "internalType": "uint256",
          "name": "tokenId",
          "type": "uint256"
        }
      ],
      "name": "Approval",
      "type": "event"
    },
    {
      "anonymous": false,
      "inputs": [
        {
          "indexed": true,
          "internalType": "address",
          "name": "owner",
          "type": "address"
        },
        {
          "indexed": true,
          "internalType": "address",
          "name": "operator",
          "type": "address"
        },
        {
          "indexed": false,
          "internalType": "bool",
          "name": "approved",
          "type": "bool"
        }
      ],
      "name": "ApprovalForAll",
      "type": "event"
    },
    {
      "anonymous": false,
      "inputs": [
        {
          "indexed": true,
          "internalType": "uint256",
          "name": "fromTokenId",
          "type": "uint256"
        },
        {
          "indexed": false,
          "internalType": "uint256",
          "name": "toTokenId",
          "type": "uint256"
        },
        {
          "indexed": true,
          "internalType": "address",
          "name": "from",
          "type": "address"
        },
        {
          "indexed": true,
          "internalType": "address",
          "name": "to",
          "type": "address"
        }
      ],
      "name": "ConsecutiveTransfer",
      "type": "event"
    },
    {
      "anonymous": false,
      "inputs": [
        {
          "indexed": true,
          "internalType": "address",
          "name": "previousOwner",
          "type": "address"
        },
        {
          "indexed": true,
          "internalType": "address",
          "name": "newOwner",
          "type": "address"
        }
      ],
      "name": "OwnershipTransferred",
      "type": "event"
    },
    {
      "anonymous": false,
      "inputs": [
        {
          "indexed": true,
          "internalType": "address",
          "name": "from",
          "type": "address"
        },
        {
          "indexed": true,
          "internalType": "address",
          "name": "to",
          "type": "address"
        },
        {
          "indexed": true,
          "internalType": "uint256",
          "name": "tokenId",
          "type": "uint256"
        }
      ],
      "name": "Transfer",
      "type": "event"
    },
    {
      "inputs": [
        {
          "internalType": "address",
          "name": "to",
          "type": "address"
        },
        {
          "internalType": "uint256",
          "name": "tokenId",
          "type": "uint256"
        }
      ],
      "name": "approve",
      "outputs": [],
      "stateMutability": "payable",
      "type": "function"
    },
    {
      "inputs": [
        {
          "internalType": "address",
          "name": "owner",
          "type": "address"
        }
      ],
      "name": "balanceOf",
      "outputs": [
        {
          "internalType": "uint256",
          "name": "",
          "type": "uint256"
        }
      ],
      "stateMutability": "view",
      "type": "function"
    },
    {
      "inputs": [],
      "name": "collectReserves",
      "outputs": [],
      "stateMutability": "nonpayable",
      "type": "function"
    },
    {
      "inputs": [],
      "name": "flipSale",
      "outputs": [],
      "stateMutability": "nonpayable",
      "type": "function"
    },
    {
      "inputs": [
        {
          "internalType": "address",
          "name": "owner",
          "type": "address"
        }
      ],
      "name": "freeMintedCount",
      "outputs": [
        {
          "internalType": "uint256",
          "name": "",
          "type": "uint256"
        }
      ],
      "stateMutability": "view",
      "type": "function"
    },
    {
      "inputs": [
        {
          "internalType": "uint256",
          "name": "tokenId",
          "type": "uint256"
        }
      ],
      "name": "getApproved",
      "outputs": [
        {
          "internalType": "address",
          "name": "",
          "type": "address"
        }
      ],
      "stateMutability": "view",
      "type": "function"
    },
    {
      "inputs": [
        {
          "internalType": "address",
          "name": "owner",
          "type": "address"
        },
        {
          "internalType": "address",
          "name": "operator",
          "type": "address"
        }
      ],
      "name": "isApprovedForAll",
      "outputs": [
        {
          "internalType": "bool",
          "name": "",
          "type": "bool"
        }
      ],
      "stateMutability": "view",
      "type": "function"
    },
    {
      "inputs": [
        {
          "internalType": "uint256",
          "name": "_quantity",
          "type": "uint256"
        }
      ],
      "name": "mint",
      "outputs": [],
      "stateMutability": "payable",
      "type": "function"
    },
    {
      "inputs": [],
      "name": "name",
      "outputs": [
        {
          "internalType": "string",
          "name": "",
          "type": "string"
        }
      ],
      "stateMutability": "view",
      "type": "function"
    },
    {
      "inputs": [],
      "name": "owner",
      "outputs": [
        {
          "internalType": "address",
          "name": "",
          "type": "address"
        }
      ],
      "stateMutability": "view",
      "type": "function"
    },
    {
      "inputs": [
        {
          "internalType": "uint256",
          "name": "tokenId",
          "type": "uint256"
        }
      ],
      "name": "ownerOf",
      "outputs": [
        {
          "internalType": "address",
          "name": "",
          "type": "address"
        }
      ],
      "stateMutability": "view",
      "type": "function"
    },
    {
      "inputs": [],
      "name": "paused",
      "outputs": [
        {
          "internalType": "bool",
          "name": "",
          "type": "bool"
        }
      ],
      "stateMutability": "view",
      "type": "function"
    },
    {
      "inputs": [],
      "name": "renounceOwnership",
      "outputs": [],
      "stateMutability": "nonpayable",
      "type": "function"
    },
    {
      "inputs": [
        {
          "internalType": "address",
          "name": "from",
          "type": "address"
        },
        {
          "internalType": "address",
          "name": "to",
          "type": "address"
        },
        {
          "internalType": "uint256",
          "name": "tokenId",
          "type": "uint256"
        }
      ],
      "name": "safeTransferFrom",
      "outputs": [],
      "stateMutability": "payable",
      "type": "function"
    },
    {
      "inputs": [
        {
          "internalType": "address",
          "name": "from",
          "type": "address"
        },
        {
          "internalType": "address",
          "name": "to",
          "type": "address"
        },
        {
          "internalType": "uint256",
          "name": "tokenId",
          "type": "uint256"
        },
        {
          "internalType": "bytes",
          "name": "_data",
          "type": "bytes"
        }
      ],
      "name": "safeTransferFrom",
      "outputs": [],
      "stateMutability": "payable",
      "type": "function"
    },
    {
      "inputs": [
        {
          "internalType": "address",
          "name": "operator",
          "type": "address"
        },
        {
          "internalType": "bool",
          "name": "approved",
          "type": "bool"
        }
      ],
      "name": "setApprovalForAll",
      "outputs": [],
      "stateMutability": "nonpayable",
      "type": "function"
    },
    {
      "inputs": [
        {
          "internalType": "string",
          "name": "_newBaseUri",
          "type": "string"
        }
      ],
      "name": "setBaseURI",
      "outputs": [],
      "stateMutability": "nonpayable",
      "type": "function"
    },
    {
      "inputs": [
        {
          "internalType": "bytes4",
          "name": "interfaceId",
          "type": "bytes4"
        }
      ],
      "name": "supportsInterface",
      "outputs": [
        {
          "internalType": "bool",
          "name": "",
          "type": "bool"
        }
      ],
      "stateMutability": "view",
      "type": "function"
    },
    {
      "inputs": [],
      "name": "symbol",
      "outputs": [
        {
          "internalType": "string",
          "name": "",
          "type": "string"
        }
      ],
      "stateMutability": "view",
      "type": "function"
    },
    {
      "inputs": [
        {
          "internalType": "uint256",
          "name": "tokenId",
          "type": "uint256"
        }
      ],
      "name": "tokenURI",
      "outputs": [
        {
          "internalType": "string",
          "name": "",
          "type": "string"
        }
      ],
      "stateMutability": "view",
      "type": "function"
    },
    {
      "inputs": [],
      "name": "totalSupply",
      "outputs": [
        {
          "internalType": "uint256",
          "name": "",
          "type": "uint256"
        }
      ],
      "stateMutability": "view",
      "type": "function"
    },
    {
      "inputs": [
        {
          "internalType": "address",
          "name": "from",
          "type": "address"
        },
        {
          "internalType": "address",
          "name": "to",
          "type": "address"
        },
        {
          "internalType": "uint256",
          "name": "tokenId",
          "type": "uint256"
        }
      ],
      "name": "transferFrom",
      "outputs": [],
      "stateMutability": "payable",
      "type": "function"
    },
    {
      "inputs": [
        {
          "internalType": "address",
          "name": "newOwner",
          "type": "address"
        }
      ],
      "name": "transferOwnership",
      "outputs": [],
      "stateMutability": "nonpayable",
      "type": "function"
    },
    {
      "inputs": [],
      "name": "withdraw",
      "outputs": [],
      "stateMutability": "nonpayable",
      "type": "function"
    }
  ],
  "bytecode": "0x608060405260405180608001604052806043815260200162002fcd60439139600990816200002e919062000477565b506001600a60006101000a81548160ff0219169083151502179055503480156200005757600080fd5b506040518060400160405280600981526020017f54656d70626972647300000000000000000000000000000000000000000000008152506040518060400160405280600281526020017f54420000000000000000000000000000000000000000000000000000000000008152508160029081620000d5919062000477565b508060039081620000e7919062000477565b50620000f86200012660201b60201c565b600081905550505062000120620001146200012f60201b60201c565b6200013760201b60201c565b6200055e565b60006001905090565b600033905090565b6000600860009054906101000a900473ffffffffffffffffffffffffffffffffffffffff16905081600860006101000a81548173ffffffffffffffffffffffffffffffffffffffff021916908373ffffffffffffffffffffffffffffffffffffffff1602179055508173ffffffffffffffffffffffffffffffffffffffff168173ffffffffffffffffffffffffffffffffffffffff167f8be0079c531659141344cd1fd0a4f28419497f9722a3daafe3b4186f6b6457e060405160405180910390a35050565b600081519050919050565b7f4e487b7100000000000000000000000000000000000000000000000000000000600052604160045260246000fd5b7f4e487b7100000000000000000000000000000000000000000000000000000000600052602260045260246000fd5b600060028204905060018216806200027f57607f821691505b60208210810362000295576200029462000237565b5b50919050565b60008190508160005260206000209050919050565b60006020601f8301049050919050565b600082821b905092915050565b600060088302620002ff7fffffffffffffffffffffffffffffffffffffffffffffffffffffffffffffffff82620002c0565b6200030b8683620002c0565b95508019841693508086168417925050509392505050565b6000819050919050565b6000819050919050565b600062000358620003526200034c8462000323565b6200032d565b62000323565b9050919050565b6000819050919050565b620003748362000337565b6200038c62000383826200035f565b848454620002cd565b825550505050565b600090565b620003a362000394565b620003b081848462000369565b505050565b5b81811015620003d857620003cc60008262000399565b600181019050620003b6565b5050565b601f8211156200042757620003f1816200029b565b620003fc84620002b0565b810160208510156200040c578190505b620004246200041b85620002b0565b830182620003b5565b50505b505050565b600082821c905092915050565b60006200044c600019846008026200042c565b1980831691505092915050565b600062000467838362000439565b9150826002028217905092915050565b6200048282620001fd565b67ffffffffffffffff8111156200049e576200049d62000208565b5b620004aa825462000266565b620004b7828285620003dc565b600060209050601f831160018114620004ef5760008415620004da578287015190505b620004e6858262000459565b86555062000556565b601f198416620004ff866200029b565b60005b82811015620005295784890151825560018201915060208501945060208101905062000502565b8683101562000549578489015162000545601f89168262000439565b8355505b6001600288020188555050505b505050505050565b612a5f806200056e6000396000f3fe60806040526004361061014b5760003560e01c806370a08231116100b6578063a0712d681161006f578063a0712d6814610431578063a22cb4651461044d578063b88d4fde14610476578063c87b56dd14610492578063e985e9c5146104cf578063f2fde38b1461050c5761014b565b806370a0823114610333578063715018a6146103705780637ba5e621146103875780638da5cb5b1461039e57806395d89b41146103c957806398133235146103f45761014b565b806323b872dd1161010857806323b872dd146102535780633ccfd60b1461026f57806342842e0e1461028657806355f804b3146102a25780635c975abb146102cb5780636352211e146102f65761014b565b806301ffc9a714610150578063029877b61461018d57806306fdde03146101a4578063081812fc146101cf578063095ea7b31461020c57806318160ddd14610228575b600080fd5b34801561015c57600080fd5b5061017760048036038101906101729190611ba5565b610535565b6040516101849190611bed565b60405180910390f35b34801561019957600080fd5b506101a26105c7565b005b3480156101b057600080fd5b506101b9610626565b6040516101c69190611c98565b60405180910390f35b3480156101db57600080fd5b506101f660048036038101906101f19190611cf0565b6106b8565b6040516102039190611d5e565b60405180910390f35b61022660048036038101906102219190611da5565b610737565b005b34801561023457600080fd5b5061023d61087b565b60405161024a9190611df4565b60405180910390f35b61026d60048036038101906102689190611e0f565b610892565b005b34801561027b57600080fd5b50610284610bb4565b005b6102a0600480360381019061029b9190611e0f565b610c39565b005b3480156102ae57600080fd5b506102c960048036038101906102c49190611ec7565b610c59565b005b3480156102d757600080fd5b506102e0610c77565b6040516102ed9190611bed565b60405180910390f35b34801561030257600080fd5b5061031d60048036038101906103189190611cf0565b610c8a565b60405161032a9190611d5e565b60405180910390f35b34801561033f57600080fd5b5061035a60048036038101906103559190611f14565b610c9c565b6040516103679190611df4565b60405180910390f35b34801561037c57600080fd5b50610385610d54565b005b34801561039357600080fd5b5061039c610d68565b005b3480156103aa57600080fd5b506103b3610d9c565b6040516103c09190611d5e565b60405180910390f35b3480156103d557600080fd5b506103de610dc6565b6040516103eb9190611c98565b60405180910390f35b34801561040057600080fd5b5061041b60048036038101906104169190611f14565b610e58565b6040516104289190611df4565b60405180910390f35b61044b60048036038101906104469190611cf0565b610ea1565b005b34801561045957600080fd5b50610474600480360381019061046f9190611f6d565b6110ae565b005b610490600480360381019061048b91906120dd565b6111b9565b005b34801561049e57600080fd5b506104b960048036038101906104b49190611cf0565b61122c565b6040516104c69190611c98565b60405180910390f35b3480156104db57600080fd5b506104f660048036038101906104f19190612160565b6112ca565b6040516105039190611bed565b60405180910390f35b34801561051857600080fd5b50610533600480360381019061052e9190611f14565b61135e565b005b60006301ffc9a760e01b827bffffffffffffffffffffffffffffffffffffffffffffffffffffffff1916148061059057506380ac58cd60e01b827bffffffffffffffffffffffffffffffffffffffffffffffffffffffff1916145b806105c05750635b5e139f60e01b827bffffffffffffffffffffffffffffffffffffffffffffffffffffffff1916145b9050919050565b6105cf6113e1565b60006105d961087b565b14610619576040517f08c379a0000000000000000000000000000000000000000000000000000000008152600401610610906121ec565b60405180910390fd5b61062433606461145f565b565b6060600280546106359061223b565b80601f01602080910402602001604051908101604052809291908181526020018280546106619061223b565b80156106ae5780601f10610683576101008083540402835291602001916106ae565b820191906000526020600020905b81548152906001019060200180831161069157829003601f168201915b5050505050905090565b60006106c38261161a565b6106f9576040517fcf4700e400000000000000000000000000000000000000000000000000000000815260040160405180910390fd5b6006600083815260200190815260200160002060000160009054906101000a900473ffffffffffffffffffffffffffffffffffffffff169050919050565b600061074282610c8a565b90508073ffffffffffffffffffffffffffffffffffffffff16610763611679565b73ffffffffffffffffffffffffffffffffffffffff16146107c65761078f8161078a611679565b6112ca565b6107c5576040517fcfb3b94200000000000000000000000000000000000000000000000000000000815260040160405180910390fd5b5b826006600084815260200190815260200160002060000160006101000a81548173ffffffffffffffffffffffffffffffffffffffff021916908373ffffffffffffffffffffffffffffffffffffffff160217905550818373ffffffffffffffffffffffffffffffffffffffff168273ffffffffffffffffffffffffffffffffffffffff167f8c5be1e5ebec7d5bd14f71427d1e84f3dd0314c0f7b2291e5b200ac8c7c3b92560405160405180910390a4505050565b6000610885611681565b6001546000540303905090565b600061089d8261168a565b90508373ffffffffffffffffffffffffffffffffffffffff168173ffffffffffffffffffffffffffffffffffffffff1614610904576040517fa114810000000000000000000000000000000000000000000000000000000000815260040160405180910390fd5b60008061091084611756565b915091506109268187610921611679565b61177d565b6109725761093b86610936611679565b6112ca565b610971576040517f59c896be00000000000000000000000000000000000000000000000000000000815260040160405180910390fd5b5b600073ffffffffffffffffffffffffffffffffffffffff168573ffffffffffffffffffffffffffffffffffffffff16036109d8576040517fea553b3400000000000000000000000000000000000000000000000000000000815260040160405180910390fd5b6109e586868660016117c1565b80156109f057600082555b600560008773ffffffffffffffffffffffffffffffffffffffff1673ffffffffffffffffffffffffffffffffffffffff168152602001908152602001600020600081546001900391905081905550600560008673ffffffffffffffffffffffffffffffffffffffff1673ffffffffffffffffffffffffffffffffffffffff1681526020019081526020016000206000815460010191905081905550610abe85610a9a8888876117c7565b7c0200000000000000000000000000000000000000000000000000000000176117ef565b600460008681526020019081526020016000208190555060007c0200000000000000000000000000000000000000000000000000000000841603610b445760006001850190506000600460008381526020019081526020016000205403610b42576000548114610b41578360046000838152602001908152602001600020819055505b5b505b838573ffffffffffffffffffffffffffffffffffffffff168773ffffffffffffffffffffffffffffffffffffffff167fddf252ad1be2c89b69c2b068fc378daa952ba7f163c4a11628f55a4df523b3ef60405160405180910390a4610bac868686600161181a565b505050505050565b610bbc6113e1565b610bc4610d9c565b73ffffffffffffffffffffffffffffffffffffffff166108fc479081150290604051600060405180830381858888f19350505050610c37576040517f08c379a0000000000000000000000000000000000000000000000000000000008152600401610c2e906122b8565b60405180910390fd5b565b610c54838383604051806020016040528060008152506111b9565b505050565b610c616113e1565b818160099182610c7292919061248f565b505050565b600a60009054906101000a900460ff1681565b6000610c958261168a565b9050919050565b60008073ffffffffffffffffffffffffffffffffffffffff168273ffffffffffffffffffffffffffffffffffffffff1603610d03576040517f8f4eb60400000000000000000000000000000000000000000000000000000000815260040160405180910390fd5b67ffffffffffffffff600560008473ffffffffffffffffffffffffffffffffffffffff1673ffffffffffffffffffffffffffffffffffffffff16815260200190815260200160002054169050919050565b610d5c6113e1565b610d666000611820565b565b610d706113e1565b600a60009054906101000a900460ff1615600a60006101000a81548160ff021916908315150217905550565b6000600860009054906101000a900473ffffffffffffffffffffffffffffffffffffffff16905090565b606060038054610dd59061223b565b80601f0160208091040260200160405190810160405280929190818152602001828054610e019061223b565b8015610e4e5780601f10610e2357610100808354040283529160200191610e4e565b820191906000526020600020905b815481529060010190602001808311610e3157829003601f168201915b5050505050905090565b6000600b60008373ffffffffffffffffffffffffffffffffffffffff1673ffffffffffffffffffffffffffffffffffffffff168152602001908152602001600020549050919050565b600a60009054906101000a900460ff1615610ef1576040517f08c379a0000000000000000000000000000000000000000000000000000000008152600401610ee8906125ab565b60405180910390fd5b6000610efb61087b565b90506127118282610f0c91906125fa565b10610f4c576040517f08c379a0000000000000000000000000000000000000000000000000000000008152600401610f439061267a565b60405180910390fd5b6103e98210610f90576040517f08c379a0000000000000000000000000000000000000000000000000000000008152600401610f87906126e6565b60405180910390fd5b60008290506000600b60003373ffffffffffffffffffffffffffffffffffffffff1673ffffffffffffffffffffffffffffffffffffffff168152602001908152602001600020549050600181101561104a576001841115610fff57600184610ff89190612706565b9150611004565b600091505b6001600b60003373ffffffffffffffffffffffffffffffffffffffff1673ffffffffffffffffffffffffffffffffffffffff168152602001908152602001600020819055505b655af3107a40008261105c919061273a565b34101561109e576040517f08c379a0000000000000000000000000000000000000000000000000000000008152600401611095906127c8565b60405180910390fd5b6110a8338561145f565b50505050565b80600760006110bb611679565b73ffffffffffffffffffffffffffffffffffffffff1673ffffffffffffffffffffffffffffffffffffffff16815260200190815260200160002060008473ffffffffffffffffffffffffffffffffffffffff1673ffffffffffffffffffffffffffffffffffffffff16815260200190815260200160002060006101000a81548160ff0219169083151502179055508173ffffffffffffffffffffffffffffffffffffffff16611168611679565b73ffffffffffffffffffffffffffffffffffffffff167f17307eab39ab6107e8899845ad3d59bd9653f200f220920489ca2b5937696c31836040516111ad9190611bed565b60405180910390a35050565b6111c4848484610892565b60008373ffffffffffffffffffffffffffffffffffffffff163b14611226576111ef848484846118e6565b611225576040517fd1a57ed600000000000000000000000000000000000000000000000000000000815260040160405180910390fd5b5b50505050565b60606112378261161a565b61126d576040517fa14c4b5000000000000000000000000000000000000000000000000000000000815260040160405180910390fd5b6000611277611a36565b9050600081510361129757604051806020016040528060008152506112c2565b806112a184611ac8565b6040516020016112b2929190612824565b6040516020818303038152906040525b915050919050565b6000600760008473ffffffffffffffffffffffffffffffffffffffff1673ffffffffffffffffffffffffffffffffffffffff16815260200190815260200160002060008373ffffffffffffffffffffffffffffffffffffffff1673ffffffffffffffffffffffffffffffffffffffff16815260200190815260200160002060009054906101000a900460ff16905092915050565b6113666113e1565b600073ffffffffffffffffffffffffffffffffffffffff168173ffffffffffffffffffffffffffffffffffffffff16036113d5576040517f08c379a00000000000000000000000000000000000000000000000000000000081526004016113cc906128ba565b60405180910390fd5b6113de81611820565b50565b6113e9611b18565b73ffffffffffffffffffffffffffffffffffffffff16611407610d9c565b73ffffffffffffffffffffffffffffffffffffffff161461145d576040517f08c379a000000000000000000000000000000000000000000000000000000000815260040161145490612926565b60405180910390fd5b565b6000805490506000820361149f576040517fb562e8dd00000000000000000000000000000000000000000000000000000000815260040160405180910390fd5b6114ac60008483856117c1565b600160406001901b178202600560008573ffffffffffffffffffffffffffffffffffffffff1673ffffffffffffffffffffffffffffffffffffffff168152602001908152602001600020600082825401925050819055506115238361151460008660006117c7565b61151d85611b20565b176117ef565b6004600083815260200190815260200160002081905550600080838301905073ffffffffffffffffffffffffffffffffffffffff85169150828260007fddf252ad1be2c89b69c2b068fc378daa952ba7f163c4a11628f55a4df523b3ef600080a4600183015b8181146115c457808360007fddf252ad1be2c89b69c2b068fc378daa952ba7f163c4a11628f55a4df523b3ef600080a4600181019050611589565b50600082036115ff576040517f2e07630000000000000000000000000000000000000000000000000000000000815260040160405180910390fd5b806000819055505050611615600084838561181a565b505050565b600081611625611681565b11158015611634575060005482105b8015611672575060007c0100000000000000000000000000000000000000000000000000000000600460008581526020019081526020016000205416145b9050919050565b600033905090565b60006001905090565b60008082905080611699611681565b1161171f5760005481101561171e5760006004600083815260200190815260200160002054905060007c010000000000000000000000000000000000000000000000000000000082160361171c575b600081036117125760046000836001900393508381526020019081526020016000205490506116e8565b8092505050611751565b505b5b6040517fdf2d9b4200000000000000000000000000000000000000000000000000000000815260040160405180910390fd5b919050565b60008060006006600085815260200190815260200160002090508092508254915050915091565b600073ffffffffffffffffffffffffffffffffffffffff8316925073ffffffffffffffffffffffffffffffffffffffff821691508382148383141790509392505050565b50505050565b60008060e883901c905060e86117de868684611b30565b62ffffff16901b9150509392505050565b600073ffffffffffffffffffffffffffffffffffffffff83169250814260a01b178317905092915050565b50505050565b6000600860009054906101000a900473ffffffffffffffffffffffffffffffffffffffff16905081600860006101000a81548173ffffffffffffffffffffffffffffffffffffffff021916908373ffffffffffffffffffffffffffffffffffffffff1602179055508173ffffffffffffffffffffffffffffffffffffffff168173ffffffffffffffffffffffffffffffffffffffff167f8be0079c531659141344cd1fd0a4f28419497f9722a3daafe3b4186f6b6457e060405160405180910390a35050565b60008373ffffffffffffffffffffffffffffffffffffffff1663150b7a0261190c611679565b8786866040518563ffffffff1660e01b815260040161192e949392919061299b565b6020604051808303816000875af192505050801561196a57506040513d601f19601f8201168201806040525081019061196791906129fc565b60015b6119e3573d806000811461199a576040519150601f19603f3d011682016040523d82523d6000602084013e61199f565b606091505b5060008151036119db576040517fd1a57ed600000000000000000000000000000000000000000000000000000000815260040160405180910390fd5b805181602001fd5b63150b7a0260e01b7bffffffffffffffffffffffffffffffffffffffffffffffffffffffff1916817bffffffffffffffffffffffffffffffffffffffffffffffffffffffff191614915050949350505050565b606060098054611a459061223b565b80601f0160208091040260200160405190810160405280929190818152602001828054611a719061223b565b8015611abe5780601f10611a9357610100808354040283529160200191611abe565b820191906000526020600020905b815481529060010190602001808311611aa157829003601f168201915b5050505050905090565b606060a060405101806040526020810391506000825281835b600115611b0357600184039350600a81066030018453600a8104905080611ae1575b50828103602084039350808452505050919050565b600033905090565b60006001821460e11b9050919050565b60009392505050565b6000604051905090565b600080fd5b600080fd5b60007fffffffff0000000000000000000000000000000000000000000000000000000082169050919050565b611b8281611b4d565b8114611b8d57600080fd5b50565b600081359050611b9f81611b79565b92915050565b600060208284031215611bbb57611bba611b43565b5b6000611bc984828501611b90565b91505092915050565b60008115159050919050565b611be781611bd2565b82525050565b6000602082019050611c026000830184611bde565b92915050565b600081519050919050565b600082825260208201905092915050565b60005b83811015611c42578082015181840152602081019050611c27565b60008484015250505050565b6000601f19601f8301169050919050565b6000611c6a82611c08565b611c748185611c13565b9350611c84818560208601611c24565b611c8d81611c4e565b840191505092915050565b60006020820190508181036000830152611cb28184611c5f565b905092915050565b6000819050919050565b611ccd81611cba565b8114611cd857600080fd5b50565b600081359050611cea81611cc4565b92915050565b600060208284031215611d0657611d05611b43565b5b6000611d1484828501611cdb565b91505092915050565b600073ffffffffffffffffffffffffffffffffffffffff82169050919050565b6000611d4882611d1d565b9050919050565b611d5881611d3d565b82525050565b6000602082019050611d736000830184611d4f565b92915050565b611d8281611d3d565b8114611d8d57600080fd5b50565b600081359050611d9f81611d79565b92915050565b60008060408385031215611dbc57611dbb611b43565b5b6000611dca85828601611d90565b9250506020611ddb85828601611cdb565b9150509250929050565b611dee81611cba565b82525050565b6000602082019050611e096000830184611de5565b92915050565b600080600060608486031215611e2857611e27611b43565b5b6000611e3686828701611d90565b9350506020611e4786828701611d90565b9250506040611e5886828701611cdb565b9150509250925092565b600080fd5b600080fd5b600080fd5b60008083601f840112611e8757611e86611e62565b5b8235905067ffffffffffffffff811115611ea457611ea3611e67565b5b602083019150836001820283011115611ec057611ebf611e6c565b5b9250929050565b60008060208385031215611ede57611edd611b43565b5b600083013567ffffffffffffffff811115611efc57611efb611b48565b5b611f0885828601611e71565b92509250509250929050565b600060208284031215611f2a57611f29611b43565b5b6000611f3884828501611d90565b91505092915050565b611f4a81611bd2565b8114611f5557600080fd5b50565b600081359050611f6781611f41565b92915050565b60008060408385031215611f8457611f83611b43565b5b6000611f9285828601611d90565b9250506020611fa385828601611f58565b9150509250929050565b600080fd5b7f4e487b7100000000000000000000000000000000000000000000000000000000600052604160045260246000fd5b611fea82611c4e565b810181811067ffffffffffffffff8211171561200957612008611fb2565b5b80604052505050565b600061201c611b39565b90506120288282611fe1565b919050565b600067ffffffffffffffff82111561204857612047611fb2565b5b61205182611c4e565b9050602081019050919050565b82818337600083830152505050565b600061208061207b8461202d565b612012565b90508281526020810184848401111561209c5761209b611fad565b5b6120a784828561205e565b509392505050565b600082601f8301126120c4576120c3611e62565b5b81356120d484826020860161206d565b91505092915050565b600080600080608085870312156120f7576120f6611b43565b5b600061210587828801611d90565b945050602061211687828801611d90565b935050604061212787828801611cdb565b925050606085013567ffffffffffffffff81111561214857612147611b48565b5b612154878288016120af565b91505092959194509250565b6000806040838503121561217757612176611b43565b5b600061218585828601611d90565b925050602061219685828601611d90565b9150509250929050565b7f526573657276657320616c72656164792074616b656e00000000000000000000600082015250565b60006121d6601683611c13565b91506121e1826121a0565b602082019050919050565b60006020820190508181036000830152612205816121c9565b9050919050565b7f4e487b7100000000000000000000000000000000000000000000000000000000600052602260045260246000fd5b6000600282049050600182168061225357607f821691505b6020821081036122665761226561220c565b5b50919050565b7f576974686472617720756e7375636365737366756c0000000000000000000000600082015250565b60006122a2601583611c13565b91506122ad8261226c565b602082019050919050565b600060208201905081810360008301526122d181612295565b9050919050565b600082905092915050565b60008190508160005260206000209050919050565b60006020601f8301049050919050565b600082821b905092915050565b6000600883026123457fffffffffffffffffffffffffffffffffffffffffffffffffffffffffffffffff82612308565b61234f8683612308565b95508019841693508086168417925050509392505050565b6000819050919050565b600061238c61238761238284611cba565b612367565b611cba565b9050919050565b6000819050919050565b6123a683612371565b6123ba6123b282612393565b848454612315565b825550505050565b600090565b6123cf6123c2565b6123da81848461239d565b505050565b5b818110156123fe576123f36000826123c7565b6001810190506123e0565b5050565b601f82111561244357612414816122e3565b61241d846122f8565b8101602085101561242c578190505b612440612438856122f8565b8301826123df565b50505b505050565b600082821c905092915050565b600061246660001984600802612448565b1980831691505092915050565b600061247f8383612455565b9150826002028217905092915050565b61249983836122d8565b67ffffffffffffffff8111156124b2576124b1611fb2565b5b6124bc825461223b565b6124c7828285612402565b6000601f8311600181146124f657600084156124e4578287013590505b6124ee8582612473565b865550612556565b601f198416612504866122e3565b60005b8281101561252c57848901358255600182019150602085019450602081019050612507565b868310156125495784890135612545601f891682612455565b8355505b6001600288020188555050505b50505050505050565b7f4d696e74696e6720706175736564000000000000000000000000000000000000600082015250565b6000612595600e83611c13565b91506125a08261255f565b602082019050919050565b600060208201905081810360008301526125c481612588565b9050919050565b7f4e487b7100000000000000000000000000000000000000000000000000000000600052601160045260246000fd5b600061260582611cba565b915061261083611cba565b9250828201905080821115612628576126276125cb565b5b92915050565b7f4578636565647320737570706c79000000000000000000000000000000000000600082015250565b6000612664600e83611c13565b915061266f8261262e565b602082019050919050565b6000602082019050818103600083015261269381612657565b9050919050565b7f45786365656473206d6178207065722074780000000000000000000000000000600082015250565b60006126d0601283611c13565b91506126db8261269a565b602082019050919050565b600060208201905081810360008301526126ff816126c3565b9050919050565b600061271182611cba565b915061271c83611cba565b9250828203905081811115612734576127336125cb565b5b92915050565b600061274582611cba565b915061275083611cba565b925082820261275e81611cba565b91508282048414831517612775576127746125cb565b5b5092915050565b7f4554482073656e74206e6f7420636f7272656374000000000000000000000000600082015250565b60006127b2601483611c13565b91506127bd8261277c565b602082019050919050565b600060208201905081810360008301526127e1816127a5565b9050919050565b600081905092915050565b60006127fe82611c08565b61280881856127e8565b9350612818818560208601611c24565b80840191505092915050565b600061283082856127f3565b915061283c82846127f3565b91508190509392505050565b7f4f776e61626c653a206e6577206f776e657220697320746865207a65726f206160008201527f6464726573730000000000000000000000000000000000000000000000000000602082015250565b60006128a4602683611c13565b91506128af82612848565b604082019050919050565b600060208201905081810360008301526128d381612897565b9050919050565b7f4f776e61626c653a2063616c6c6572206973206e6f7420746865206f776e6572600082015250565b6000612910602083611c13565b915061291b826128da565b602082019050919050565b6000602082019050818103600083015261293f81612903565b9050919050565b600081519050919050565b600082825260208201905092915050565b600061296d82612946565b6129778185612951565b9350612987818560208601611c24565b61299081611c4e565b840191505092915050565b60006080820190506129b06000830187611d4f565b6129bd6020830186611d4f565b6129ca6040830185611de5565b81810360608301526129dc8184612962565b905095945050505050565b6000815190506129f681611b79565b92915050565b600060208284031215612a1257612a11611b43565b5b6000612a20848285016129e7565b9150509291505056fea26469706673582212200822965ecf56928da25e4e186e359ca1507436b398c5954f05ca34276a02bc9f64736f6c63430008110033697066733a2f2f62616679626569647235663372716c6e6e6968717136727379646c746d7a6e62737a357a63726233347778717233376a7168366b627a75697136792f",
  "linkReferences": {},
  "deployedLinkReferences": {}
}